{
	"data": {
		"bytecode": {
			"linkReferences": {},
			"object": "6080604052604051610010906100de565b604051809103905ff080158015610029573d5f803e3d5ffd5b505f806101000a81548173ffffffffffffffffffffffffffffffffffffffff021916908373ffffffffffffffffffffffffffffffffffffffff160217905550604051610074906100eb565b604051809103905ff08015801561008d573d5f803e3d5ffd5b5060015f6101000a81548173ffffffffffffffffffffffffffffffffffffffff021916908373ffffffffffffffffffffffffffffffffffffffff1602179055503480156100d8575f80fd5b506100f8565b6101858061075f83390190565b610185806108e483390190565b61065a806101055f395ff3fe608060405234801561000f575f80fd5b506004361061004a575f3560e01c806344d333ff1461004e5780635d4220321461006c5780639266ad161461008a578063fb825e5f146100ba575b5f80fd5b6100566100d9565b604051610063919061033f565b60405180910390f35b6100746100fc565b604051610081919061033f565b60405180910390f35b6100a4600480360381019061009f91906103b5565b610121565b6040516100b1919061046a565b60405180910390f35b6100c261019a565b6040516100d092919061048a565b60405180910390f35b5f8054906101000a900473ffffffffffffffffffffffffffffffffffffffff1681565b60015f9054906101000a900473ffffffffffffffffffffffffffffffffffffffff1681565b60608173ffffffffffffffffffffffffffffffffffffffff166317d7de7c6040518163ffffffff1660e01b81526004015f60405180830381865afa15801561016b573d5f803e3d5ffd5b505050506040513d5f823e3d601f19601f8201168201806040525081019061019391906105dd565b9050919050565b6060805f8054906101000a900473ffffffffffffffffffffffffffffffffffffffff1673ffffffffffffffffffffffffffffffffffffffff166317d7de7c6040518163ffffffff1660e01b81526004015f60405180830381865afa158015610204573d5f803e3d5ffd5b505050506040513d5f823e3d601f19601f8201168201806040525081019061022c91906105dd565b60015f9054906101000a900473ffffffffffffffffffffffffffffffffffffffff1673ffffffffffffffffffffffffffffffffffffffff166317d7de7c6040518163ffffffff1660e01b81526004015f60405180830381865afa158015610295573d5f803e3d5ffd5b505050506040513d5f823e3d601f19601f820116820180604052508101906102bd91906105dd565b915091509091565b5f73ffffffffffffffffffffffffffffffffffffffff82169050919050565b5f819050919050565b5f6103076103026102fd846102c5565b6102e4565b6102c5565b9050919050565b5f610318826102ed565b9050919050565b5f6103298261030e565b9050919050565b6103398161031f565b82525050565b5f6020820190506103525f830184610330565b92915050565b5f604051905090565b5f80fd5b5f80fd5b5f610373826102c5565b9050919050565b5f61038482610369565b9050919050565b6103948161037a565b811461039e575f80fd5b50565b5f813590506103af8161038b565b92915050565b5f602082840312156103ca576103c9610361565b5b5f6103d7848285016103a1565b91505092915050565b5f81519050919050565b5f82825260208201905092915050565b5f5b838110156104175780820151818401526020810190506103fc565b5f8484015250505050565b5f601f19601f8301169050919050565b5f61043c826103e0565b61044681856103ea565b93506104568185602086016103fa565b61045f81610422565b840191505092915050565b5f6020820190508181035f8301526104828184610432565b905092915050565b5f6040820190508181035f8301526104a28185610432565b905081810360208301526104b68184610432565b90509392505050565b5f80fd5b5f80fd5b7f4e487b71000000000000000000000000000000000000000000000000000000005f52604160045260245ffd5b6104fd82610422565b810181811067ffffffffffffffff8211171561051c5761051b6104c7565b5b80604052505050565b5f61052e610358565b905061053a82826104f4565b919050565b5f67ffffffffffffffff821115610559576105586104c7565b5b61056282610422565b9050602081019050919050565b5f61058161057c8461053f565b610525565b90508281526020810184848401111561059d5761059c6104c3565b5b6105a88482856103fa565b509392505050565b5f82601f8301126105c4576105c36104bf565b5b81516105d484826020860161056f565b91505092915050565b5f602082840312156105f2576105f1610361565b5b5f82015167ffffffffffffffff81111561060f5761060e610365565b5b61061b848285016105b0565b9150509291505056fea26469706673582212201a6074a1e14d51a55c12c11cde7df5300059162b11778259179c81a403c9747264736f6c63430008150033608060405234801561000f575f80fd5b506101688061001d5f395ff3fe608060405234801561000f575f80fd5b5060043610610029575f3560e01c806317d7de7c1461002d575b5f80fd5b61003561004b565b6040516100429190610112565b60405180910390f35b60606040518060400160405280600581526020017f5469676572000000000000000000000000000000000000000000000000000000815250905090565b5f81519050919050565b5f82825260208201905092915050565b5f5b838110156100bf5780820151818401526020810190506100a4565b5f8484015250505050565b5f601f19601f8301169050919050565b5f6100e482610088565b6100ee8185610092565b93506100fe8185602086016100a2565b610107816100ca565b840191505092915050565b5f6020820190508181035f83015261012a81846100da565b90509291505056fea2646970667358221220e22816ca9dca0239280b5e97bcfccb52310e1677ea163d66a28fed3dbb738b2264736f6c63430008150033608060405234801561000f575f80fd5b506101688061001d5f395ff3fe608060405234801561000f575f80fd5b5060043610610029575f3560e01c806317d7de7c1461002d575b5f80fd5b61003561004b565b6040516100429190610112565b60405180910390f35b60606040518060400160405280600681526020017f547572746c650000000000000000000000000000000000000000000000000000815250905090565b5f81519050919050565b5f82825260208201905092915050565b5f5b838110156100bf5780820151818401526020810190506100a4565b5f8484015250505050565b5f601f19601f8301169050919050565b5f6100e482610088565b6100ee8185610092565b93506100fe8185602086016100a2565b610107816100ca565b840191505092915050565b5f6020820190508181035f83015261012a81846100da565b90509291505056fea26469706673582212202c1684af1bd520b0d4cfe80ffd7672e77c54c0d78dd10943fd9a74eae2a7411264736f6c63430008150033",
			"opcodes": "PUSH1 0x80 PUSH1 0x40 MSTORE PUSH1 0x40 MLOAD PUSH2 0x10 SWAP1 PUSH2 0xDE JUMP JUMPDEST PUSH1 0x40 MLOAD DUP1 SWAP2 SUB SWAP1 PUSH0 CREATE DUP1 ISZERO DUP1 ISZERO PUSH2 0x29 JUMPI RETURNDATASIZE PUSH0 DUP1 RETURNDATACOPY RETURNDATASIZE PUSH0 REVERT JUMPDEST POP PUSH0 DUP1 PUSH2 0x100 EXP DUP2 SLOAD DUP2 PUSH20 0xFFFFFFFFFFFFFFFFFFFFFFFFFFFFFFFFFFFFFFFF MUL NOT AND SWAP1 DUP4 PUSH20 0xFFFFFFFFFFFFFFFFFFFFFFFFFFFFFFFFFFFFFFFF AND MUL OR SWAP1 SSTORE POP PUSH1 0x40 MLOAD PUSH2 0x74 SWAP1 PUSH2 0xEB JUMP JUMPDEST PUSH1 0x40 MLOAD DUP1 SWAP2 SUB SWAP1 PUSH0 CREATE DUP1 ISZERO DUP1 ISZERO PUSH2 0x8D JUMPI RETURNDATASIZE PUSH0 DUP1 RETURNDATACOPY RETURNDATASIZE PUSH0 REVERT JUMPDEST POP PUSH1 0x1 PUSH0 PUSH2 0x100 EXP DUP2 SLOAD DUP2 PUSH20 0xFFFFFFFFFFFFFFFFFFFFFFFFFFFFFFFFFFFFFFFF MUL NOT AND SWAP1 DUP4 PUSH20 0xFFFFFFFFFFFFFFFFFFFFFFFFFFFFFFFFFFFFFFFF AND MUL OR SWAP1 SSTORE POP CALLVALUE DUP1 ISZERO PUSH2 0xD8 JUMPI PUSH0 DUP1 REVERT JUMPDEST POP PUSH2 0xF8 JUMP JUMPDEST PUSH2 0x185 DUP1 PUSH2 0x75F DUP4 CODECOPY ADD SWAP1 JUMP JUMPDEST PUSH2 0x185 DUP1 PUSH2 0x8E4 DUP4 CODECOPY ADD SWAP1 JUMP JUMPDEST PUSH2 0x65A DUP1 PUSH2 0x105 PUSH0 CODECOPY PUSH0 RETURN INVALID PUSH1 0x80 PUSH1 0x40 MSTORE CALLVALUE DUP1 ISZERO PUSH2 0xF JUMPI PUSH0 DUP1 REVERT JUMPDEST POP PUSH1 0x4 CALLDATASIZE LT PUSH2 0x4A JUMPI PUSH0 CALLDATALOAD PUSH1 0xE0 SHR DUP1 PUSH4 0x44D333FF EQ PUSH2 0x4E JUMPI DUP1 PUSH4 0x5D422032 EQ PUSH2 0x6C JUMPI DUP1 PUSH4 0x9266AD16 EQ PUSH2 0x8A JUMPI DUP1 PUSH4 0xFB825E5F EQ PUSH2 0xBA JUMPI JUMPDEST PUSH0 DUP1 REVERT JUMPDEST PUSH2 0x56 PUSH2 0xD9 JUMP JUMPDEST PUSH1 0x40 MLOAD PUSH2 0x63 SWAP2 SWAP1 PUSH2 0x33F JUMP JUMPDEST PUSH1 0x40 MLOAD DUP1 SWAP2 SUB SWAP1 RETURN JUMPDEST PUSH2 0x74 PUSH2 0xFC JUMP JUMPDEST PUSH1 0x40 MLOAD PUSH2 0x81 SWAP2 SWAP1 PUSH2 0x33F JUMP JUMPDEST PUSH1 0x40 MLOAD DUP1 SWAP2 SUB SWAP1 RETURN JUMPDEST PUSH2 0xA4 PUSH1 0x4 DUP1 CALLDATASIZE SUB DUP2 ADD SWAP1 PUSH2 0x9F SWAP2 SWAP1 PUSH2 0x3B5 JUMP JUMPDEST PUSH2 0x121 JUMP JUMPDEST PUSH1 0x40 MLOAD PUSH2 0xB1 SWAP2 SWAP1 PUSH2 0x46A JUMP JUMPDEST PUSH1 0x40 MLOAD DUP1 SWAP2 SUB SWAP1 RETURN JUMPDEST PUSH2 0xC2 PUSH2 0x19A JUMP JUMPDEST PUSH1 0x40 MLOAD PUSH2 0xD0 SWAP3 SWAP2 SWAP1 PUSH2 0x48A JUMP JUMPDEST PUSH1 0x40 MLOAD DUP1 SWAP2 SUB SWAP1 RETURN JUMPDEST PUSH0 DUP1 SLOAD SWAP1 PUSH2 0x100 EXP SWAP1 DIV PUSH20 0xFFFFFFFFFFFFFFFFFFFFFFFFFFFFFFFFFFFFFFFF AND DUP2 JUMP JUMPDEST PUSH1 0x1 PUSH0 SWAP1 SLOAD SWAP1 PUSH2 0x100 EXP SWAP1 DIV PUSH20 0xFFFFFFFFFFFFFFFFFFFFFFFFFFFFFFFFFFFFFFFF AND DUP2 JUMP JUMPDEST PUSH1 0x60 DUP2 PUSH20 0xFFFFFFFFFFFFFFFFFFFFFFFFFFFFFFFFFFFFFFFF AND PUSH4 0x17D7DE7C PUSH1 0x40 MLOAD DUP2 PUSH4 0xFFFFFFFF AND PUSH1 0xE0 SHL DUP2 MSTORE PUSH1 0x4 ADD PUSH0 PUSH1 0x40 MLOAD DUP1 DUP4 SUB DUP2 DUP7 GAS STATICCALL ISZERO DUP1 ISZERO PUSH2 0x16B JUMPI RETURNDATASIZE PUSH0 DUP1 RETURNDATACOPY RETURNDATASIZE PUSH0 REVERT JUMPDEST POP POP POP POP PUSH1 0x40 MLOAD RETURNDATASIZE PUSH0 DUP3 RETURNDATACOPY RETURNDATASIZE PUSH1 0x1F NOT PUSH1 0x1F DUP3 ADD AND DUP3 ADD DUP1 PUSH1 0x40 MSTORE POP DUP2 ADD SWAP1 PUSH2 0x193 SWAP2 SWAP1 PUSH2 0x5DD JUMP JUMPDEST SWAP1 POP SWAP2 SWAP1 POP JUMP JUMPDEST PUSH1 0x60 DUP1 PUSH0 DUP1 SLOAD SWAP1 PUSH2 0x100 EXP SWAP1 DIV PUSH20 0xFFFFFFFFFFFFFFFFFFFFFFFFFFFFFFFFFFFFFFFF AND PUSH20 0xFFFFFFFFFFFFFFFFFFFFFFFFFFFFFFFFFFFFFFFF AND PUSH4 0x17D7DE7C PUSH1 0x40 MLOAD DUP2 PUSH4 0xFFFFFFFF AND PUSH1 0xE0 SHL DUP2 MSTORE PUSH1 0x4 ADD PUSH0 PUSH1 0x40 MLOAD DUP1 DUP4 SUB DUP2 DUP7 GAS STATICCALL ISZERO DUP1 ISZERO PUSH2 0x204 JUMPI RETURNDATASIZE PUSH0 DUP1 RETURNDATACOPY RETURNDATASIZE PUSH0 REVERT JUMPDEST POP POP POP POP PUSH1 0x40 MLOAD RETURNDATASIZE PUSH0 DUP3 RETURNDATACOPY RETURNDATASIZE PUSH1 0x1F NOT PUSH1 0x1F DUP3 ADD AND DUP3 ADD DUP1 PUSH1 0x40 MSTORE POP DUP2 ADD SWAP1 PUSH2 0x22C SWAP2 SWAP1 PUSH2 0x5DD JUMP JUMPDEST PUSH1 0x1 PUSH0 SWAP1 SLOAD SWAP1 PUSH2 0x100 EXP SWAP1 DIV PUSH20 0xFFFFFFFFFFFFFFFFFFFFFFFFFFFFFFFFFFFFFFFF AND PUSH20 0xFFFFFFFFFFFFFFFFFFFFFFFFFFFFFFFFFFFFFFFF AND PUSH4 0x17D7DE7C PUSH1 0x40 MLOAD DUP2 PUSH4 0xFFFFFFFF AND PUSH1 0xE0 SHL DUP2 MSTORE PUSH1 0x4 ADD PUSH0 PUSH1 0x40 MLOAD DUP1 DUP4 SUB DUP2 DUP7 GAS STATICCALL ISZERO DUP1 ISZERO PUSH2 0x295 JUMPI RETURNDATASIZE PUSH0 DUP1 RETURNDATACOPY RETURNDATASIZE PUSH0 REVERT JUMPDEST POP POP POP POP PUSH1 0x40 MLOAD RETURNDATASIZE PUSH0 DUP3 RETURNDATACOPY RETURNDATASIZE PUSH1 0x1F NOT PUSH1 0x1F DUP3 ADD AND DUP3 ADD DUP1 PUSH1 0x40 MSTORE POP DUP2 ADD SWAP1 PUSH2 0x2BD SWAP2 SWAP1 PUSH2 0x5DD JUMP JUMPDEST SWAP2 POP SWAP2 POP SWAP1 SWAP2 JUMP JUMPDEST PUSH0 PUSH20 0xFFFFFFFFFFFFFFFFFFFFFFFFFFFFFFFFFFFFFFFF DUP3 AND SWAP1 POP SWAP2 SWAP1 POP JUMP JUMPDEST PUSH0 DUP2 SWAP1 POP SWAP2 SWAP1 POP JUMP JUMPDEST PUSH0 PUSH2 0x307 PUSH2 0x302 PUSH2 0x2FD DUP5 PUSH2 0x2C5 JUMP JUMPDEST PUSH2 0x2E4 JUMP JUMPDEST PUSH2 0x2C5 JUMP JUMPDEST SWAP1 POP SWAP2 SWAP1 POP JUMP JUMPDEST PUSH0 PUSH2 0x318 DUP3 PUSH2 0x2ED JUMP JUMPDEST SWAP1 POP SWAP2 SWAP1 POP JUMP JUMPDEST PUSH0 PUSH2 0x329 DUP3 PUSH2 0x30E JUMP JUMPDEST SWAP1 POP SWAP2 SWAP1 POP JUMP JUMPDEST PUSH2 0x339 DUP2 PUSH2 0x31F JUMP JUMPDEST DUP3 MSTORE POP POP JUMP JUMPDEST PUSH0 PUSH1 0x20 DUP3 ADD SWAP1 POP PUSH2 0x352 PUSH0 DUP4 ADD DUP5 PUSH2 0x330 JUMP JUMPDEST SWAP3 SWAP2 POP POP JUMP JUMPDEST PUSH0 PUSH1 0x40 MLOAD SWAP1 POP SWAP1 JUMP JUMPDEST PUSH0 DUP1 REVERT JUMPDEST PUSH0 DUP1 REVERT JUMPDEST PUSH0 PUSH2 0x373 DUP3 PUSH2 0x2C5 JUMP JUMPDEST SWAP1 POP SWAP2 SWAP1 POP JUMP JUMPDEST PUSH0 PUSH2 0x384 DUP3 PUSH2 0x369 JUMP JUMPDEST SWAP1 POP SWAP2 SWAP1 POP JUMP JUMPDEST PUSH2 0x394 DUP2 PUSH2 0x37A JUMP JUMPDEST DUP2 EQ PUSH2 0x39E JUMPI PUSH0 DUP1 REVERT JUMPDEST POP JUMP JUMPDEST PUSH0 DUP2 CALLDATALOAD SWAP1 POP PUSH2 0x3AF DUP2 PUSH2 0x38B JUMP JUMPDEST SWAP3 SWAP2 POP POP JUMP JUMPDEST PUSH0 PUSH1 0x20 DUP3 DUP5 SUB SLT ISZERO PUSH2 0x3CA JUMPI PUSH2 0x3C9 PUSH2 0x361 JUMP JUMPDEST JUMPDEST PUSH0 PUSH2 0x3D7 DUP5 DUP3 DUP6 ADD PUSH2 0x3A1 JUMP JUMPDEST SWAP2 POP POP SWAP3 SWAP2 POP POP JUMP JUMPDEST PUSH0 DUP2 MLOAD SWAP1 POP SWAP2 SWAP1 POP JUMP JUMPDEST PUSH0 DUP3 DUP3 MSTORE PUSH1 0x20 DUP3 ADD SWAP1 POP SWAP3 SWAP2 POP POP JUMP JUMPDEST PUSH0 JUMPDEST DUP4 DUP2 LT ISZERO PUSH2 0x417 JUMPI DUP1 DUP3 ADD MLOAD DUP2 DUP5 ADD MSTORE PUSH1 0x20 DUP2 ADD SWAP1 POP PUSH2 0x3FC JUMP JUMPDEST PUSH0 DUP5 DUP5 ADD MSTORE POP POP POP POP JUMP JUMPDEST PUSH0 PUSH1 0x1F NOT PUSH1 0x1F DUP4 ADD AND SWAP1 POP SWAP2 SWAP1 POP JUMP JUMPDEST PUSH0 PUSH2 0x43C DUP3 PUSH2 0x3E0 JUMP JUMPDEST PUSH2 0x446 DUP2 DUP6 PUSH2 0x3EA JUMP JUMPDEST SWAP4 POP PUSH2 0x456 DUP2 DUP6 PUSH1 0x20 DUP7 ADD PUSH2 0x3FA JUMP JUMPDEST PUSH2 0x45F DUP2 PUSH2 0x422 JUMP JUMPDEST DUP5 ADD SWAP2 POP POP SWAP3 SWAP2 POP POP JUMP JUMPDEST PUSH0 PUSH1 0x20 DUP3 ADD SWAP1 POP DUP2 DUP2 SUB PUSH0 DUP4 ADD MSTORE PUSH2 0x482 DUP2 DUP5 PUSH2 0x432 JUMP JUMPDEST SWAP1 POP SWAP3 SWAP2 POP POP JUMP JUMPDEST PUSH0 PUSH1 0x40 DUP3 ADD SWAP1 POP DUP2 DUP2 SUB PUSH0 DUP4 ADD MSTORE PUSH2 0x4A2 DUP2 DUP6 PUSH2 0x432 JUMP JUMPDEST SWAP1 POP DUP2 DUP2 SUB PUSH1 0x20 DUP4 ADD MSTORE PUSH2 0x4B6 DUP2 DUP5 PUSH2 0x432 JUMP JUMPDEST SWAP1 POP SWAP4 SWAP3 POP POP POP JUMP JUMPDEST PUSH0 DUP1 REVERT JUMPDEST PUSH0 DUP1 REVERT JUMPDEST PUSH32 0x4E487B7100000000000000000000000000000000000000000000000000000000 PUSH0 MSTORE PUSH1 0x41 PUSH1 0x4 MSTORE PUSH1 0x24 PUSH0 REVERT JUMPDEST PUSH2 0x4FD DUP3 PUSH2 0x422 JUMP JUMPDEST DUP2 ADD DUP2 DUP2 LT PUSH8 0xFFFFFFFFFFFFFFFF DUP3 GT OR ISZERO PUSH2 0x51C JUMPI PUSH2 0x51B PUSH2 0x4C7 JUMP JUMPDEST JUMPDEST DUP1 PUSH1 0x40 MSTORE POP POP POP JUMP JUMPDEST PUSH0 PUSH2 0x52E PUSH2 0x358 JUMP JUMPDEST SWAP1 POP PUSH2 0x53A DUP3 DUP3 PUSH2 0x4F4 JUMP JUMPDEST SWAP2 SWAP1 POP JUMP JUMPDEST PUSH0 PUSH8 0xFFFFFFFFFFFFFFFF DUP3 GT ISZERO PUSH2 0x559 JUMPI PUSH2 0x558 PUSH2 0x4C7 JUMP JUMPDEST JUMPDEST PUSH2 0x562 DUP3 PUSH2 0x422 JUMP JUMPDEST SWAP1 POP PUSH1 0x20 DUP2 ADD SWAP1 POP SWAP2 SWAP1 POP JUMP JUMPDEST PUSH0 PUSH2 0x581 PUSH2 0x57C DUP5 PUSH2 0x53F JUMP JUMPDEST PUSH2 0x525 JUMP JUMPDEST SWAP1 POP DUP3 DUP2 MSTORE PUSH1 0x20 DUP2 ADD DUP5 DUP5 DUP5 ADD GT ISZERO PUSH2 0x59D JUMPI PUSH2 0x59C PUSH2 0x4C3 JUMP JUMPDEST JUMPDEST PUSH2 0x5A8 DUP5 DUP3 DUP6 PUSH2 0x3FA JUMP JUMPDEST POP SWAP4 SWAP3 POP POP POP JUMP JUMPDEST PUSH0 DUP3 PUSH1 0x1F DUP4 ADD SLT PUSH2 0x5C4 JUMPI PUSH2 0x5C3 PUSH2 0x4BF JUMP JUMPDEST JUMPDEST DUP2 MLOAD PUSH2 0x5D4 DUP5 DUP3 PUSH1 0x20 DUP7 ADD PUSH2 0x56F JUMP JUMPDEST SWAP2 POP POP SWAP3 SWAP2 POP POP JUMP JUMPDEST PUSH0 PUSH1 0x20 DUP3 DUP5 SUB SLT ISZERO PUSH2 0x5F2 JUMPI PUSH2 0x5F1 PUSH2 0x361 JUMP JUMPDEST JUMPDEST PUSH0 DUP3 ADD MLOAD PUSH8 0xFFFFFFFFFFFFFFFF DUP2 GT ISZERO PUSH2 0x60F JUMPI PUSH2 0x60E PUSH2 0x365 JUMP JUMPDEST JUMPDEST PUSH2 0x61B DUP5 DUP3 DUP6 ADD PUSH2 0x5B0 JUMP JUMPDEST SWAP2 POP POP SWAP3 SWAP2 POP POP JUMP INVALID LOG2 PUSH5 0x6970667358 0x22 SLT KECCAK256 BYTE PUSH1 0x74 LOG1 0xE1 0x4D MLOAD 0xA5 0x5C SLT 0xC1 SHR 0xDE PUSH30 0xF5300059162B11778259179C81A403C9747264736F6C6343000815003360 DUP1 PUSH1 0x40 MSTORE CALLVALUE DUP1 ISZERO PUSH2 0xF JUMPI PUSH0 DUP1 REVERT JUMPDEST POP PUSH2 0x168 DUP1 PUSH2 0x1D PUSH0 CODECOPY PUSH0 RETURN INVALID PUSH1 0x80 PUSH1 0x40 MSTORE CALLVALUE DUP1 ISZERO PUSH2 0xF JUMPI PUSH0 DUP1 REVERT JUMPDEST POP PUSH1 0x4 CALLDATASIZE LT PUSH2 0x29 JUMPI PUSH0 CALLDATALOAD PUSH1 0xE0 SHR DUP1 PUSH4 0x17D7DE7C EQ PUSH2 0x2D JUMPI JUMPDEST PUSH0 DUP1 REVERT JUMPDEST PUSH2 0x35 PUSH2 0x4B JUMP JUMPDEST PUSH1 0x40 MLOAD PUSH2 0x42 SWAP2 SWAP1 PUSH2 0x112 JUMP JUMPDEST PUSH1 0x40 MLOAD DUP1 SWAP2 SUB SWAP1 RETURN JUMPDEST PUSH1 0x60 PUSH1 0x40 MLOAD DUP1 PUSH1 0x40 ADD PUSH1 0x40 MSTORE DUP1 PUSH1 0x5 DUP2 MSTORE PUSH1 0x20 ADD PUSH32 0x5469676572000000000000000000000000000000000000000000000000000000 DUP2 MSTORE POP SWAP1 POP SWAP1 JUMP JUMPDEST PUSH0 DUP2 MLOAD SWAP1 POP SWAP2 SWAP1 POP JUMP JUMPDEST PUSH0 DUP3 DUP3 MSTORE PUSH1 0x20 DUP3 ADD SWAP1 POP SWAP3 SWAP2 POP POP JUMP JUMPDEST PUSH0 JUMPDEST DUP4 DUP2 LT ISZERO PUSH2 0xBF JUMPI DUP1 DUP3 ADD MLOAD DUP2 DUP5 ADD MSTORE PUSH1 0x20 DUP2 ADD SWAP1 POP PUSH2 0xA4 JUMP JUMPDEST PUSH0 DUP5 DUP5 ADD MSTORE POP POP POP POP JUMP JUMPDEST PUSH0 PUSH1 0x1F NOT PUSH1 0x1F DUP4 ADD AND SWAP1 POP SWAP2 SWAP1 POP JUMP JUMPDEST PUSH0 PUSH2 0xE4 DUP3 PUSH2 0x88 JUMP JUMPDEST PUSH2 0xEE DUP2 DUP6 PUSH2 0x92 JUMP JUMPDEST SWAP4 POP PUSH2 0xFE DUP2 DUP6 PUSH1 0x20 DUP7 ADD PUSH2 0xA2 JUMP JUMPDEST PUSH2 0x107 DUP2 PUSH2 0xCA JUMP JUMPDEST DUP5 ADD SWAP2 POP POP SWAP3 SWAP2 POP POP JUMP JUMPDEST PUSH0 PUSH1 0x20 DUP3 ADD SWAP1 POP DUP2 DUP2 SUB PUSH0 DUP4 ADD MSTORE PUSH2 0x12A DUP2 DUP5 PUSH2 0xDA JUMP JUMPDEST SWAP1 POP SWAP3 SWAP2 POP POP JUMP INVALID LOG2 PUSH5 0x6970667358 0x22 SLT KECCAK256 0xE2 0x28 AND 0xCA SWAP14 0xCA MUL CODECOPY 0x28 SIGNEXTEND 0x5E SWAP8 0xBC 0xFC 0xCB MSTORE BALANCE 0xE AND PUSH24 0xEA163D66A28FED3DBB738B2264736F6C6343000815003360 DUP1 PUSH1 0x40 MSTORE CALLVALUE DUP1 ISZERO PUSH2 0xF JUMPI PUSH0 DUP1 REVERT JUMPDEST POP PUSH2 0x168 DUP1 PUSH2 0x1D PUSH0 CODECOPY PUSH0 RETURN INVALID PUSH1 0x80 PUSH1 0x40 MSTORE CALLVALUE DUP1 ISZERO PUSH2 0xF JUMPI PUSH0 DUP1 REVERT JUMPDEST POP PUSH1 0x4 CALLDATASIZE LT PUSH2 0x29 JUMPI PUSH0 CALLDATALOAD PUSH1 0xE0 SHR DUP1 PUSH4 0x17D7DE7C EQ PUSH2 0x2D JUMPI JUMPDEST PUSH0 DUP1 REVERT JUMPDEST PUSH2 0x35 PUSH2 0x4B JUMP JUMPDEST PUSH1 0x40 MLOAD PUSH2 0x42 SWAP2 SWAP1 PUSH2 0x112 JUMP JUMPDEST PUSH1 0x40 MLOAD DUP1 SWAP2 SUB SWAP1 RETURN JUMPDEST PUSH1 0x60 PUSH1 0x40 MLOAD DUP1 PUSH1 0x40 ADD PUSH1 0x40 MSTORE DUP1 PUSH1 0x6 DUP2 MSTORE PUSH1 0x20 ADD PUSH32 0x547572746C650000000000000000000000000000000000000000000000000000 DUP2 MSTORE POP SWAP1 POP SWAP1 JUMP JUMPDEST PUSH0 DUP2 MLOAD SWAP1 POP SWAP2 SWAP1 POP JUMP JUMPDEST PUSH0 DUP3 DUP3 MSTORE PUSH1 0x20 DUP3 ADD SWAP1 POP SWAP3 SWAP2 POP POP JUMP JUMPDEST PUSH0 JUMPDEST DUP4 DUP2 LT ISZERO PUSH2 0xBF JUMPI DUP1 DUP3 ADD MLOAD DUP2 DUP5 ADD MSTORE PUSH1 0x20 DUP2 ADD SWAP1 POP PUSH2 0xA4 JUMP JUMPDEST PUSH0 DUP5 DUP5 ADD MSTORE POP POP POP POP JUMP JUMPDEST PUSH0 PUSH1 0x1F NOT PUSH1 0x1F DUP4 ADD AND SWAP1 POP SWAP2 SWAP1 POP JUMP JUMPDEST PUSH0 PUSH2 0xE4 DUP3 PUSH2 0x88 JUMP JUMPDEST PUSH2 0xEE DUP2 DUP6 PUSH2 0x92 JUMP JUMPDEST SWAP4 POP PUSH2 0xFE DUP2 DUP6 PUSH1 0x20 DUP7 ADD PUSH2 0xA2 JUMP JUMPDEST PUSH2 0x107 DUP2 PUSH2 0xCA JUMP JUMPDEST DUP5 ADD SWAP2 POP POP SWAP3 SWAP2 POP POP JUMP JUMPDEST PUSH0 PUSH1 0x20 DUP3 ADD SWAP1 POP DUP2 DUP2 SUB PUSH0 DUP4 ADD MSTORE PUSH2 0x12A DUP2 DUP5 PUSH2 0xDA JUMP JUMPDEST SWAP1 POP SWAP3 SWAP2 POP POP JUMP INVALID LOG2 PUSH5 0x6970667358 0x22 SLT KECCAK256 0x2C AND DUP5 0xAF SHL 0xD5 KECCAK256 0xB0 0xD4 0xCF 0xE8 0xF REVERT PUSH23 0x72E77C54C0D78DD10943FD9A74EAE2A7411264736F6C63 NUMBER STOP ADDMOD ISZERO STOP CALLER "
		},
		"gasEstimates": {
			"creation": {
				"codeDepositCost": "325200",
				"executionCost": "infinite",
				"totalCost": "infinite"
			},
			"external": {
				"getAllNames()": "infinite",
				"tiger()": "infinite",
				"turtle()": "infinite",
				"whatIsTheName(address)": "infinite"
			}
		},
		"methodIdentifiers": {
			"getAllNames()": "fb825e5f",
			"tiger()": "44d333ff",
			"turtle()": "5d422032",
			"whatIsTheName(address)": "9266ad16"
		}
	},
	"abi": [
		{
			"inputs": [],
			"name": "getAllNames",
			"outputs": [
				{
					"internalType": "string",
					"name": "",
					"type": "string"
				},
				{
					"internalType": "string",
					"name": "",
					"type": "string"
				}
			],
			"stateMutability": "view",
			"type": "function"
		},
		{
			"inputs": [],
			"name": "tiger",
			"outputs": [
				{
					"internalType": "contract Animal",
					"name": "",
					"type": "address"
				}
			],
			"stateMutability": "view",
			"type": "function"
		},
		{
			"inputs": [],
			"name": "turtle",
			"outputs": [
				{
					"internalType": "contract Animal",
					"name": "",
					"type": "address"
				}
			],
			"stateMutability": "view",
			"type": "function"
		},
		{
			"inputs": [
				{
					"internalType": "contract Animal",
					"name": "_animal",
					"type": "address"
				}
			],
			"name": "whatIsTheName",
			"outputs": [
				{
					"internalType": "string",
					"name": "",
					"type": "string"
				}
			],
			"stateMutability": "pure",
			"type": "function"
		}
	]
}