{
	"Solidity Grammer/Modifier/1.sol": {
		"Ex2": {
			"abi": [
				{
					"inputs": [],
					"name": "numberP",
					"outputs": [],
					"stateMutability": "nonpayable",
					"type": "function"
				}
			],
			"devdoc": {
				"kind": "dev",
				"methods": {},
				"version": 1
			},
			"evm": {
				"assembly": "    /* \"Solidity Grammer/Modifier/1.sol\":176:379  contract Ex2 is Ex1 {... */\n  mstore(0x40, 0x80)\n    /* \"Solidity Grammer/Modifier/1.sol\":108:109  0 */\n  0x00\n    /* \"Solidity Grammer/Modifier/1.sol\":86:109  uint private number = 0 */\n  dup1\n  sstore\n    /* \"Solidity Grammer/Modifier/1.sol\":225:226  0 */\n  0x00\n    /* \"Solidity Grammer/Modifier/1.sol\":202:226  uint private number2 = 0 */\n  0x01\n  sstore\n    /* \"Solidity Grammer/Modifier/1.sol\":176:379  contract Ex2 is Ex1 {... */\n  callvalue\n  dup1\n  iszero\n  tag_1\n  jumpi\n  0x00\n  dup1\n  revert\ntag_1:\n  pop\n  dataSize(sub_0)\n  dup1\n  dataOffset(sub_0)\n  0x00\n  codecopy\n  0x00\n  return\nstop\n\nsub_0: assembly {\n        /* \"Solidity Grammer/Modifier/1.sol\":176:379  contract Ex2 is Ex1 {... */\n      mstore(0x40, 0x80)\n      callvalue\n      dup1\n      iszero\n      tag_1\n      jumpi\n      0x00\n      dup1\n      revert\n    tag_1:\n      pop\n      jumpi(tag_2, lt(calldatasize, 0x04))\n      shr(0xe0, calldataload(0x00))\n      dup1\n      0x40b8c4bd\n      eq\n      tag_3\n      jumpi\n    tag_2:\n      0x00\n      dup1\n      revert\n        /* \"Solidity Grammer/Modifier/1.sol\":233:377  function numberP() public {... */\n    tag_3:\n      tag_4\n      tag_5\n      jump\t// in\n    tag_4:\n      stop\n    tag_5:\n        /* \"Solidity Grammer/Modifier/1.sol\":269:276  number2 */\n      0x01\n      0x00\n        /* \"Solidity Grammer/Modifier/1.sol\":269:278  number2++ */\n      dup2\n      sload\n      dup1\n      swap3\n      swap2\n      swap1\n      tag_7\n      swap1\n      tag_8\n      jump\t// in\n    tag_7:\n      swap2\n      swap1\n      pop\n      sstore\n      pop\n        /* \"Solidity Grammer/Modifier/1.sol\":289:301  numberPlus() */\n      tag_9\n        /* \"Solidity Grammer/Modifier/1.sol\":289:299  numberPlus */\n      tag_10\n        /* \"Solidity Grammer/Modifier/1.sol\":289:301  numberPlus() */\n      jump\t// in\n    tag_9:\n        /* \"Solidity Grammer/Modifier/1.sol\":233:377  function numberP() public {... */\n      jump\t// out\n        /* \"Solidity Grammer/Modifier/1.sol\":116:172  function numberPlus() internal {... */\n    tag_10:\n        /* \"Solidity Grammer/Modifier/1.sol\":157:163  number */\n      0x00\n      dup1\n        /* \"Solidity Grammer/Modifier/1.sol\":157:165  number++ */\n      dup2\n      sload\n      dup1\n      swap3\n      swap2\n      swap1\n      tag_12\n      swap1\n      tag_8\n      jump\t// in\n    tag_12:\n      swap2\n      swap1\n      pop\n      sstore\n      pop\n        /* \"Solidity Grammer/Modifier/1.sol\":116:172  function numberPlus() internal {... */\n      jump\t// out\n        /* \"#utility.yul\":7:187   */\n    tag_13:\n        /* \"#utility.yul\":55:132   */\n      0x4e487b7100000000000000000000000000000000000000000000000000000000\n        /* \"#utility.yul\":52:53   */\n      0x00\n        /* \"#utility.yul\":45:133   */\n      mstore\n        /* \"#utility.yul\":152:156   */\n      0x11\n        /* \"#utility.yul\":149:150   */\n      0x04\n        /* \"#utility.yul\":142:157   */\n      mstore\n        /* \"#utility.yul\":176:180   */\n      0x24\n        /* \"#utility.yul\":173:174   */\n      0x00\n        /* \"#utility.yul\":166:181   */\n      revert\n        /* \"#utility.yul\":193:270   */\n    tag_14:\n        /* \"#utility.yul\":230:237   */\n      0x00\n        /* \"#utility.yul\":259:264   */\n      dup2\n        /* \"#utility.yul\":248:264   */\n      swap1\n      pop\n        /* \"#utility.yul\":193:270   */\n      swap2\n      swap1\n      pop\n      jump\t// out\n        /* \"#utility.yul\":276:509   */\n    tag_8:\n        /* \"#utility.yul\":315:318   */\n      0x00\n        /* \"#utility.yul\":338:362   */\n      tag_19\n        /* \"#utility.yul\":356:361   */\n      dup3\n        /* \"#utility.yul\":338:362   */\n      tag_14\n      jump\t// in\n    tag_19:\n        /* \"#utility.yul\":329:362   */\n      swap2\n      pop\n        /* \"#utility.yul\":384:450   */\n      0xffffffffffffffffffffffffffffffffffffffffffffffffffffffffffffffff\n        /* \"#utility.yul\":377:382   */\n      dup3\n        /* \"#utility.yul\":374:451   */\n      sub\n        /* \"#utility.yul\":371:474   */\n      tag_20\n      jumpi\n        /* \"#utility.yul\":454:472   */\n      tag_21\n      tag_13\n      jump\t// in\n    tag_21:\n        /* \"#utility.yul\":371:474   */\n    tag_20:\n        /* \"#utility.yul\":501:502   */\n      0x01\n        /* \"#utility.yul\":494:499   */\n      dup3\n        /* \"#utility.yul\":490:503   */\n      add\n        /* \"#utility.yul\":483:503   */\n      swap1\n      pop\n        /* \"#utility.yul\":276:509   */\n      swap2\n      swap1\n      pop\n      jump\t// out\n\n    auxdata: 0xa264697066735822122096c6c4412cc0a6b99bb5878ebd51a7343895706636de4acde7dfa60107acdfb464736f6c63430008150033\n}\n",
				"bytecode": {
					"linkReferences": {},
					"object": "60806040525f80555f600155348015610016575f80fd5b50610113806100245f395ff3fe6080604052348015600e575f80fd5b50600436106026575f3560e01c806340b8c4bd14602a575b5f80fd5b60306032565b005b60015f815480929190604290609b565b9190505550604d604f565b565b5f80815480929190605e90609b565b9190505550565b7f4e487b71000000000000000000000000000000000000000000000000000000005f52601160045260245ffd5b5f819050919050565b5f60a3826092565b91507fffffffffffffffffffffffffffffffffffffffffffffffffffffffffffffffff820360d25760d16065565b5b60018201905091905056fea264697066735822122096c6c4412cc0a6b99bb5878ebd51a7343895706636de4acde7dfa60107acdfb464736f6c63430008150033",
					"opcodes": "PUSH1 0x80 PUSH1 0x40 MSTORE PUSH0 DUP1 SSTORE PUSH0 PUSH1 0x1 SSTORE CALLVALUE DUP1 ISZERO PUSH2 0x16 JUMPI PUSH0 DUP1 REVERT JUMPDEST POP PUSH2 0x113 DUP1 PUSH2 0x24 PUSH0 CODECOPY PUSH0 RETURN INVALID PUSH1 0x80 PUSH1 0x40 MSTORE CALLVALUE DUP1 ISZERO PUSH1 0xE JUMPI PUSH0 DUP1 REVERT JUMPDEST POP PUSH1 0x4 CALLDATASIZE LT PUSH1 0x26 JUMPI PUSH0 CALLDATALOAD PUSH1 0xE0 SHR DUP1 PUSH4 0x40B8C4BD EQ PUSH1 0x2A JUMPI JUMPDEST PUSH0 DUP1 REVERT JUMPDEST PUSH1 0x30 PUSH1 0x32 JUMP JUMPDEST STOP JUMPDEST PUSH1 0x1 PUSH0 DUP2 SLOAD DUP1 SWAP3 SWAP2 SWAP1 PUSH1 0x42 SWAP1 PUSH1 0x9B JUMP JUMPDEST SWAP2 SWAP1 POP SSTORE POP PUSH1 0x4D PUSH1 0x4F JUMP JUMPDEST JUMP JUMPDEST PUSH0 DUP1 DUP2 SLOAD DUP1 SWAP3 SWAP2 SWAP1 PUSH1 0x5E SWAP1 PUSH1 0x9B JUMP JUMPDEST SWAP2 SWAP1 POP SSTORE POP JUMP JUMPDEST PUSH32 0x4E487B7100000000000000000000000000000000000000000000000000000000 PUSH0 MSTORE PUSH1 0x11 PUSH1 0x4 MSTORE PUSH1 0x24 PUSH0 REVERT JUMPDEST PUSH0 DUP2 SWAP1 POP SWAP2 SWAP1 POP JUMP JUMPDEST PUSH0 PUSH1 0xA3 DUP3 PUSH1 0x92 JUMP JUMPDEST SWAP2 POP PUSH32 0xFFFFFFFFFFFFFFFFFFFFFFFFFFFFFFFFFFFFFFFFFFFFFFFFFFFFFFFFFFFFFFFF DUP3 SUB PUSH1 0xD2 JUMPI PUSH1 0xD1 PUSH1 0x65 JUMP JUMPDEST JUMPDEST PUSH1 0x1 DUP3 ADD SWAP1 POP SWAP2 SWAP1 POP JUMP INVALID LOG2 PUSH5 0x6970667358 0x22 SLT KECCAK256 SWAP7 0xC6 0xC4 COINBASE 0x2C 0xC0 0xA6 0xB9 SWAP12 0xB5 DUP8 DUP15 0xBD MLOAD 0xA7 CALLVALUE CODESIZE SWAP6 PUSH17 0x6636DE4ACDE7DFA60107ACDFB464736F6C PUSH4 0x43000815 STOP CALLER "
				},
				"gasEstimates": {
					"creation": {
						"codeDepositCost": "55000",
						"executionCost": "10113",
						"totalCost": "65113"
					},
					"external": {
						"numberP()": "infinite"
					}
				},
				"methodIdentifiers": {
					"numberP()": "40b8c4bd"
				}
			},
			"storageLayout": {
				"storage": [
					{
						"astId": 4,
						"contract": "Solidity Grammer/Modifier/1.sol:Ex2",
						"label": "number",
						"offset": 0,
						"slot": "0",
						"type": "t_uint256"
					},
					{
						"astId": 17,
						"contract": "Solidity Grammer/Modifier/1.sol:Ex2",
						"label": "number2",
						"offset": 0,
						"slot": "1",
						"type": "t_uint256"
					}
				],
				"types": {
					"t_uint256": {
						"encoding": "inplace",
						"label": "uint256",
						"numberOfBytes": "32"
					}
				}
			},
			"userdoc": {
				"kind": "user",
				"methods": {},
				"version": 1
			}
		}
	}
}