{
	"Solidity Grammer/Inheritance/mul2.sol": {
		"Alice": {
			"abi": [
				{
					"inputs": [],
					"name": "time",
					"outputs": [
						{
							"internalType": "uint256",
							"name": "",
							"type": "uint256"
						}
					],
					"stateMutability": "nonpayable",
					"type": "function"
				}
			],
			"devdoc": {
				"kind": "dev",
				"methods": {},
				"version": 1
			},
			"evm": {
				"assembly": "    /* \"Solidity Grammer/Inheritance/mul2.sol\":502:711  contract Alice is  PartTimer(6), ArtStudent(5) { // 뒤에 있는 contract가 super가 된다. ... */\n  mstore(0x40, 0x80)\n  callvalue\n  dup1\n  iszero\n  tag_1\n  jumpi\n  0x00\n  dup1\n  revert\ntag_1:\n  pop\n    /* \"Solidity Grammer/Inheritance/mul2.sol\":546:547  5 */\n  0x05\n    /* \"Solidity Grammer/Inheritance/mul2.sol\":531:532  6 */\n  0x06\n    /* \"Solidity Grammer/Inheritance/mul2.sol\":389:402  _workingHours */\n  dup1\n    /* \"Solidity Grammer/Inheritance/mul2.sol\":374:386  workingHours */\n  0x00\n    /* \"Solidity Grammer/Inheritance/mul2.sol\":374:402  workingHours = _workingHours */\n  dup2\n  swap1\n  sstore\n  pop\n    /* \"Solidity Grammer/Inheritance/mul2.sol\":333:409  constructor(uint _workingHours){... */\n  pop\n    /* \"Solidity Grammer/Inheritance/mul2.sol\":178:190  _schoolHours */\n  dup1\n    /* \"Solidity Grammer/Inheritance/mul2.sol\":164:175  schoolHours */\n  0x01\n    /* \"Solidity Grammer/Inheritance/mul2.sol\":164:190  schoolHours = _schoolHours */\n  dup2\n  swap1\n  sstore\n  pop\n    /* \"Solidity Grammer/Inheritance/mul2.sol\":123:197  constructor(uint _schoolHours) {... */\n  pop\n    /* \"Solidity Grammer/Inheritance/mul2.sol\":502:711  contract Alice is  PartTimer(6), ArtStudent(5) { // 뒤에 있는 contract가 super가 된다. ... */\n  dataSize(sub_0)\n  dup1\n  dataOffset(sub_0)\n  0x00\n  codecopy\n  0x00\n  return\nstop\n\nsub_0: assembly {\n        /* \"Solidity Grammer/Inheritance/mul2.sol\":502:711  contract Alice is  PartTimer(6), ArtStudent(5) { // 뒤에 있는 contract가 super가 된다. ... */\n      mstore(0x40, 0x80)\n      callvalue\n      dup1\n      iszero\n      tag_1\n      jumpi\n      0x00\n      dup1\n      revert\n    tag_1:\n      pop\n      jumpi(tag_2, lt(calldatasize, 0x04))\n      shr(0xe0, calldataload(0x00))\n      dup1\n      0x16ada547\n      eq\n      tag_3\n      jumpi\n    tag_2:\n      0x00\n      dup1\n      revert\n        /* \"Solidity Grammer/Inheritance/mul2.sol\":602:709  function time() public override (PartTimer, ArtStudent) returns (uint) {... */\n    tag_3:\n      tag_4\n      tag_5\n      jump\t// in\n    tag_4:\n      mload(0x40)\n      tag_6\n      swap2\n      swap1\n      tag_7\n      jump\t// in\n    tag_6:\n      mload(0x40)\n      dup1\n      swap2\n      sub\n      swap1\n      return\n    tag_5:\n        /* \"Solidity Grammer/Inheritance/mul2.sol\":667:671  uint */\n      0x00\n        /* \"Solidity Grammer/Inheritance/mul2.sol\":690:702  super.time() */\n      tag_9\n        /* \"Solidity Grammer/Inheritance/mul2.sol\":690:700  super.time */\n      tag_10\n        /* \"Solidity Grammer/Inheritance/mul2.sol\":690:702  super.time() */\n      jump\t// in\n    tag_9:\n        /* \"Solidity Grammer/Inheritance/mul2.sol\":683:702  return super.time() */\n      swap1\n      pop\n        /* \"Solidity Grammer/Inheritance/mul2.sol\":602:709  function time() public override (PartTimer, ArtStudent) returns (uint) {... */\n      swap1\n      jump\t// out\n        /* \"Solidity Grammer/Inheritance/mul2.sol\":203:273  function time() public virtual returns(uint) {... */\n    tag_10:\n        /* \"Solidity Grammer/Inheritance/mul2.sol\":242:246  uint */\n      0x00\n        /* \"Solidity Grammer/Inheritance/mul2.sol\":265:266  5 */\n      0x05\n        /* \"Solidity Grammer/Inheritance/mul2.sol\":258:266  return 5 */\n      swap1\n      pop\n        /* \"Solidity Grammer/Inheritance/mul2.sol\":203:273  function time() public virtual returns(uint) {... */\n      swap1\n      jump\t// out\n        /* \"#utility.yul\":7:84   */\n    tag_12:\n        /* \"#utility.yul\":44:51   */\n      0x00\n        /* \"#utility.yul\":73:78   */\n      dup2\n        /* \"#utility.yul\":62:78   */\n      swap1\n      pop\n        /* \"#utility.yul\":7:84   */\n      swap2\n      swap1\n      pop\n      jump\t// out\n        /* \"#utility.yul\":90:208   */\n    tag_13:\n        /* \"#utility.yul\":177:201   */\n      tag_17\n        /* \"#utility.yul\":195:200   */\n      dup2\n        /* \"#utility.yul\":177:201   */\n      tag_12\n      jump\t// in\n    tag_17:\n        /* \"#utility.yul\":172:175   */\n      dup3\n        /* \"#utility.yul\":165:202   */\n      mstore\n        /* \"#utility.yul\":90:208   */\n      pop\n      pop\n      jump\t// out\n        /* \"#utility.yul\":214:436   */\n    tag_7:\n        /* \"#utility.yul\":307:311   */\n      0x00\n        /* \"#utility.yul\":345:347   */\n      0x20\n        /* \"#utility.yul\":334:343   */\n      dup3\n        /* \"#utility.yul\":330:348   */\n      add\n        /* \"#utility.yul\":322:348   */\n      swap1\n      pop\n        /* \"#utility.yul\":358:429   */\n      tag_19\n        /* \"#utility.yul\":426:427   */\n      0x00\n        /* \"#utility.yul\":415:424   */\n      dup4\n        /* \"#utility.yul\":411:428   */\n      add\n        /* \"#utility.yul\":402:408   */\n      dup5\n        /* \"#utility.yul\":358:429   */\n      tag_13\n      jump\t// in\n    tag_19:\n        /* \"#utility.yul\":214:436   */\n      swap3\n      swap2\n      pop\n      pop\n      jump\t// out\n\n    auxdata: 0xa264697066735822122076fa0563e407cd2de56c8cad4b79fd7970862c3514692c52bdccaf0686d934ae64736f6c63430008150033\n}\n",
				"bytecode": {
					"linkReferences": {},
					"object": "608060405234801561000f575f80fd5b5060056006805f8190555050806001819055505060bb8061002f5f395ff3fe6080604052348015600e575f80fd5b50600436106026575f3560e01c806316ada54714602a575b5f80fd5b60306044565b604051603b9190606e565b60405180910390f35b5f604b6050565b905090565b5f6005905090565b5f819050919050565b6068816058565b82525050565b5f602082019050607f5f8301846061565b9291505056fea264697066735822122076fa0563e407cd2de56c8cad4b79fd7970862c3514692c52bdccaf0686d934ae64736f6c63430008150033",
					"opcodes": "PUSH1 0x80 PUSH1 0x40 MSTORE CALLVALUE DUP1 ISZERO PUSH2 0xF JUMPI PUSH0 DUP1 REVERT JUMPDEST POP PUSH1 0x5 PUSH1 0x6 DUP1 PUSH0 DUP2 SWAP1 SSTORE POP POP DUP1 PUSH1 0x1 DUP2 SWAP1 SSTORE POP POP PUSH1 0xBB DUP1 PUSH2 0x2F PUSH0 CODECOPY PUSH0 RETURN INVALID PUSH1 0x80 PUSH1 0x40 MSTORE CALLVALUE DUP1 ISZERO PUSH1 0xE JUMPI PUSH0 DUP1 REVERT JUMPDEST POP PUSH1 0x4 CALLDATASIZE LT PUSH1 0x26 JUMPI PUSH0 CALLDATALOAD PUSH1 0xE0 SHR DUP1 PUSH4 0x16ADA547 EQ PUSH1 0x2A JUMPI JUMPDEST PUSH0 DUP1 REVERT JUMPDEST PUSH1 0x30 PUSH1 0x44 JUMP JUMPDEST PUSH1 0x40 MLOAD PUSH1 0x3B SWAP2 SWAP1 PUSH1 0x6E JUMP JUMPDEST PUSH1 0x40 MLOAD DUP1 SWAP2 SUB SWAP1 RETURN JUMPDEST PUSH0 PUSH1 0x4B PUSH1 0x50 JUMP JUMPDEST SWAP1 POP SWAP1 JUMP JUMPDEST PUSH0 PUSH1 0x5 SWAP1 POP SWAP1 JUMP JUMPDEST PUSH0 DUP2 SWAP1 POP SWAP2 SWAP1 POP JUMP JUMPDEST PUSH1 0x68 DUP2 PUSH1 0x58 JUMP JUMPDEST DUP3 MSTORE POP POP JUMP JUMPDEST PUSH0 PUSH1 0x20 DUP3 ADD SWAP1 POP PUSH1 0x7F PUSH0 DUP4 ADD DUP5 PUSH1 0x61 JUMP JUMPDEST SWAP3 SWAP2 POP POP JUMP INVALID LOG2 PUSH5 0x6970667358 0x22 SLT KECCAK256 PUSH23 0xFA0563E407CD2DE56C8CAD4B79FD7970862C3514692C52 0xBD 0xCC 0xAF MOD DUP7 0xD9 CALLVALUE 0xAE PUSH5 0x736F6C6343 STOP ADDMOD ISZERO STOP CALLER "
				},
				"gasEstimates": {
					"creation": {
						"codeDepositCost": "37400",
						"executionCost": "44322",
						"totalCost": "81722"
					},
					"external": {
						"time()": "344"
					}
				},
				"methodIdentifiers": {
					"time()": "16ada547"
				}
			},
			"storageLayout": {
				"storage": [
					{
						"astId": 24,
						"contract": "Solidity Grammer/Inheritance/mul2.sol:Alice",
						"label": "workingHours",
						"offset": 0,
						"slot": "0",
						"type": "t_uint256"
					},
					{
						"astId": 3,
						"contract": "Solidity Grammer/Inheritance/mul2.sol:Alice",
						"label": "schoolHours",
						"offset": 0,
						"slot": "1",
						"type": "t_uint256"
					}
				],
				"types": {
					"t_uint256": {
						"encoding": "inplace",
						"label": "uint256",
						"numberOfBytes": "32"
					}
				}
			},
			"userdoc": {
				"kind": "user",
				"methods": {},
				"version": 1
			}
		}
	}
}