{
	"data": {
		"bytecode": {
			"linkReferences": {},
			"object": "608060405260055f556002600155601860025560038055348015610021575f80fd5b5061019f8061002f5f395ff3fe608060405234801561000f575f80fd5b506004361061004a575f3560e01c806303383d951461004e5780637defb4101461006e578063bfc3ef441461008c578063c3da42b8146100ac575b5f80fd5b6100566100ca565b6040516100659392919061011b565b60405180910390f35b6100766100e1565b6040516100839190610150565b60405180910390f35b6100946100e7565b6040516100a39392919061011b565b60405180910390f35b6100b46100fe565b6040516100c19190610150565b60405180910390f35b5f805f600154600254600354925092509250909192565b60015481565b5f805f600154600254600354925092509250909192565b600581565b5f819050919050565b61011581610103565b82525050565b5f60608201905061012e5f83018661010c565b61013b602083018561010c565b610148604083018461010c565b949350505050565b5f6020820190506101635f83018461010c565b9291505056fea2646970667358221220a2c95a037fde2c2195a5e44a24783a08f5d9b1f68bec76dda346a9b5d9bab14164736f6c63430008150033",
			"opcodes": "PUSH1 0x80 PUSH1 0x40 MSTORE PUSH1 0x5 PUSH0 SSTORE PUSH1 0x2 PUSH1 0x1 SSTORE PUSH1 0x18 PUSH1 0x2 SSTORE PUSH1 0x3 DUP1 SSTORE CALLVALUE DUP1 ISZERO PUSH2 0x21 JUMPI PUSH0 DUP1 REVERT JUMPDEST POP PUSH2 0x19F DUP1 PUSH2 0x2F PUSH0 CODECOPY PUSH0 RETURN INVALID PUSH1 0x80 PUSH1 0x40 MSTORE CALLVALUE DUP1 ISZERO PUSH2 0xF JUMPI PUSH0 DUP1 REVERT JUMPDEST POP PUSH1 0x4 CALLDATASIZE LT PUSH2 0x4A JUMPI PUSH0 CALLDATALOAD PUSH1 0xE0 SHR DUP1 PUSH4 0x3383D95 EQ PUSH2 0x4E JUMPI DUP1 PUSH4 0x7DEFB410 EQ PUSH2 0x6E JUMPI DUP1 PUSH4 0xBFC3EF44 EQ PUSH2 0x8C JUMPI DUP1 PUSH4 0xC3DA42B8 EQ PUSH2 0xAC JUMPI JUMPDEST PUSH0 DUP1 REVERT JUMPDEST PUSH2 0x56 PUSH2 0xCA JUMP JUMPDEST PUSH1 0x40 MLOAD PUSH2 0x65 SWAP4 SWAP3 SWAP2 SWAP1 PUSH2 0x11B JUMP JUMPDEST PUSH1 0x40 MLOAD DUP1 SWAP2 SUB SWAP1 RETURN JUMPDEST PUSH2 0x76 PUSH2 0xE1 JUMP JUMPDEST PUSH1 0x40 MLOAD PUSH2 0x83 SWAP2 SWAP1 PUSH2 0x150 JUMP JUMPDEST PUSH1 0x40 MLOAD DUP1 SWAP2 SUB SWAP1 RETURN JUMPDEST PUSH2 0x94 PUSH2 0xE7 JUMP JUMPDEST PUSH1 0x40 MLOAD PUSH2 0xA3 SWAP4 SWAP3 SWAP2 SWAP1 PUSH2 0x11B JUMP JUMPDEST PUSH1 0x40 MLOAD DUP1 SWAP2 SUB SWAP1 RETURN JUMPDEST PUSH2 0xB4 PUSH2 0xFE JUMP JUMPDEST PUSH1 0x40 MLOAD PUSH2 0xC1 SWAP2 SWAP1 PUSH2 0x150 JUMP JUMPDEST PUSH1 0x40 MLOAD DUP1 SWAP2 SUB SWAP1 RETURN JUMPDEST PUSH0 DUP1 PUSH0 PUSH1 0x1 SLOAD PUSH1 0x2 SLOAD PUSH1 0x3 SLOAD SWAP3 POP SWAP3 POP SWAP3 POP SWAP1 SWAP2 SWAP3 JUMP JUMPDEST PUSH1 0x1 SLOAD DUP2 JUMP JUMPDEST PUSH0 DUP1 PUSH0 PUSH1 0x1 SLOAD PUSH1 0x2 SLOAD PUSH1 0x3 SLOAD SWAP3 POP SWAP3 POP SWAP3 POP SWAP1 SWAP2 SWAP3 JUMP JUMPDEST PUSH1 0x5 DUP2 JUMP JUMPDEST PUSH0 DUP2 SWAP1 POP SWAP2 SWAP1 POP JUMP JUMPDEST PUSH2 0x115 DUP2 PUSH2 0x103 JUMP JUMPDEST DUP3 MSTORE POP POP JUMP JUMPDEST PUSH0 PUSH1 0x60 DUP3 ADD SWAP1 POP PUSH2 0x12E PUSH0 DUP4 ADD DUP7 PUSH2 0x10C JUMP JUMPDEST PUSH2 0x13B PUSH1 0x20 DUP4 ADD DUP6 PUSH2 0x10C JUMP JUMPDEST PUSH2 0x148 PUSH1 0x40 DUP4 ADD DUP5 PUSH2 0x10C JUMP JUMPDEST SWAP5 SWAP4 POP POP POP POP JUMP JUMPDEST PUSH0 PUSH1 0x20 DUP3 ADD SWAP1 POP PUSH2 0x163 PUSH0 DUP4 ADD DUP5 PUSH2 0x10C JUMP JUMPDEST SWAP3 SWAP2 POP POP JUMP INVALID LOG2 PUSH5 0x6970667358 0x22 SLT KECCAK256 LOG2 0xC9 GAS SUB PUSH32 0xDE2C2195A5E44A24783A08F5D9B1F68BEC76DDA346A9B5D9BAB14164736F6C63 NUMBER STOP ADDMOD ISZERO STOP CALLER "
		},
		"gasEstimates": {
			"creation": {
				"codeDepositCost": "83000",
				"executionCost": "88550",
				"totalCost": "171550"
			},
			"external": {
				"c()": "369",
				"funExt()": "infinite",
				"funPub()": "infinite",
				"pub()": "2425"
			},
			"internal": {
				"funInter()": "infinite",
				"funPriv()": "infinite"
			}
		},
		"methodIdentifiers": {
			"c()": "c3da42b8",
			"funExt()": "bfc3ef44",
			"funPub()": "03383d95",
			"pub()": "7defb410"
		}
	},
	"abi": [
		{
			"inputs": [],
			"name": "c",
			"outputs": [
				{
					"internalType": "uint256",
					"name": "",
					"type": "uint256"
				}
			],
			"stateMutability": "view",
			"type": "function"
		},
		{
			"inputs": [],
			"name": "funExt",
			"outputs": [
				{
					"internalType": "uint256",
					"name": "",
					"type": "uint256"
				},
				{
					"internalType": "uint256",
					"name": "",
					"type": "uint256"
				},
				{
					"internalType": "uint256",
					"name": "",
					"type": "uint256"
				}
			],
			"stateMutability": "view",
			"type": "function"
		},
		{
			"inputs": [],
			"name": "funPub",
			"outputs": [
				{
					"internalType": "uint256",
					"name": "",
					"type": "uint256"
				},
				{
					"internalType": "uint256",
					"name": "",
					"type": "uint256"
				},
				{
					"internalType": "uint256",
					"name": "",
					"type": "uint256"
				}
			],
			"stateMutability": "view",
			"type": "function"
		},
		{
			"inputs": [],
			"name": "pub",
			"outputs": [
				{
					"internalType": "uint256",
					"name": "",
					"type": "uint256"
				}
			],
			"stateMutability": "view",
			"type": "function"
		}
	]
}