{
	"Solidity Use/abst.sol": {
		"SmartPhone": {
			"abi": [
				{
					"inputs": [],
					"name": "boot",
					"outputs": [
						{
							"internalType": "uint256",
							"name": "",
							"type": "uint256"
						},
						{
							"internalType": "bool",
							"name": "",
							"type": "bool"
						}
					],
					"stateMutability": "nonpayable",
					"type": "function"
				}
			],
			"devdoc": {
				"kind": "dev",
				"methods": {},
				"version": 1
			},
			"evm": {
				"assembly": "    /* \"Solidity Use/abst.sol\":569:761  contract SmartPhone is System {... */\n  mstore(0x40, 0x80)\n  callvalue\n  dup1\n  iszero\n  tag_1\n  jumpi\n  0x00\n  dup1\n  revert\ntag_1:\n  pop\n  dataSize(sub_0)\n  dup1\n  dataOffset(sub_0)\n  0x00\n  codecopy\n  0x00\n  return\nstop\n\nsub_0: assembly {\n        /* \"Solidity Use/abst.sol\":569:761  contract SmartPhone is System {... */\n      mstore(0x40, 0x80)\n      callvalue\n      dup1\n      iszero\n      tag_1\n      jumpi\n      0x00\n      dup1\n      revert\n    tag_1:\n      pop\n      jumpi(tag_2, lt(calldatasize, 0x04))\n      shr(0xe0, calldataload(0x00))\n      dup1\n      0x54d44bf7\n      eq\n      tag_3\n      jumpi\n    tag_2:\n      0x00\n      dup1\n      revert\n        /* \"Solidity Use/abst.sol\":244:377  function boot() public returns(uint, bool) {... */\n    tag_3:\n      tag_4\n      tag_5\n      jump\t// in\n    tag_4:\n      mload(0x40)\n      tag_6\n      swap3\n      swap2\n      swap1\n      tag_7\n      jump\t// in\n    tag_6:\n      mload(0x40)\n      dup1\n      swap2\n      sub\n      swap1\n      return\n    tag_5:\n        /* \"Solidity Use/abst.sol\":275:279  uint */\n      0x00\n        /* \"Solidity Use/abst.sol\":281:285  bool */\n      dup1\n        /* \"Solidity Use/abst.sol\":297:311  versionCheck() */\n      tag_9\n        /* \"Solidity Use/abst.sol\":297:309  versionCheck */\n      tag_10\n        /* \"Solidity Use/abst.sol\":297:311  versionCheck() */\n      jump\t// in\n    tag_9:\n        /* \"Solidity Use/abst.sol\":321:333  errorCheck() */\n      tag_11\n        /* \"Solidity Use/abst.sol\":321:331  errorCheck */\n      tag_12\n        /* \"Solidity Use/abst.sol\":321:333  errorCheck() */\n      jump\t// in\n    tag_11:\n        /* \"Solidity Use/abst.sol\":351:358  version */\n      sload(0x00)\n        /* \"Solidity Use/abst.sol\":360:369  errorPass */\n      0x01\n      0x00\n      swap1\n      sload\n      swap1\n      0x0100\n      exp\n      swap1\n      div\n      0xff\n      and\n        /* \"Solidity Use/abst.sol\":343:370  return (version, errorPass) */\n      swap2\n      pop\n      swap2\n      pop\n        /* \"Solidity Use/abst.sol\":244:377  function boot() public returns(uint, bool) {... */\n      swap1\n      swap2\n      jump\t// out\n        /* \"Solidity Use/abst.sol\":605:676  function versionCheck() internal override {... */\n    tag_10:\n        /* \"Solidity Use/abst.sol\":667:669  25 */\n      0x19\n        /* \"Solidity Use/abst.sol\":657:664  version */\n      0x00\n        /* \"Solidity Use/abst.sol\":657:669  version = 25 */\n      dup2\n      swap1\n      sstore\n      pop\n        /* \"Solidity Use/abst.sol\":605:676  function versionCheck() internal override {... */\n      jump\t// out\n        /* \"Solidity Use/abst.sol\":682:759  function errorCheck() internal override {... */\n    tag_12:\n        /* \"Solidity Use/abst.sol\":744:749  false */\n      0x00\n        /* \"Solidity Use/abst.sol\":732:741  errorPass */\n      0x01\n      0x00\n        /* \"Solidity Use/abst.sol\":732:749  errorPass = false */\n      0x0100\n      exp\n      dup2\n      sload\n      dup2\n      0xff\n      mul\n      not\n      and\n      swap1\n      dup4\n      iszero\n      iszero\n      mul\n      or\n      swap1\n      sstore\n      pop\n        /* \"Solidity Use/abst.sol\":682:759  function errorCheck() internal override {... */\n      jump\t// out\n        /* \"#utility.yul\":7:84   */\n    tag_15:\n        /* \"#utility.yul\":44:51   */\n      0x00\n        /* \"#utility.yul\":73:78   */\n      dup2\n        /* \"#utility.yul\":62:78   */\n      swap1\n      pop\n        /* \"#utility.yul\":7:84   */\n      swap2\n      swap1\n      pop\n      jump\t// out\n        /* \"#utility.yul\":90:208   */\n    tag_16:\n        /* \"#utility.yul\":177:201   */\n      tag_22\n        /* \"#utility.yul\":195:200   */\n      dup2\n        /* \"#utility.yul\":177:201   */\n      tag_15\n      jump\t// in\n    tag_22:\n        /* \"#utility.yul\":172:175   */\n      dup3\n        /* \"#utility.yul\":165:202   */\n      mstore\n        /* \"#utility.yul\":90:208   */\n      pop\n      pop\n      jump\t// out\n        /* \"#utility.yul\":214:304   */\n    tag_17:\n        /* \"#utility.yul\":248:255   */\n      0x00\n        /* \"#utility.yul\":291:296   */\n      dup2\n        /* \"#utility.yul\":284:297   */\n      iszero\n        /* \"#utility.yul\":277:298   */\n      iszero\n        /* \"#utility.yul\":266:298   */\n      swap1\n      pop\n        /* \"#utility.yul\":214:304   */\n      swap2\n      swap1\n      pop\n      jump\t// out\n        /* \"#utility.yul\":310:419   */\n    tag_18:\n        /* \"#utility.yul\":391:412   */\n      tag_25\n        /* \"#utility.yul\":406:411   */\n      dup2\n        /* \"#utility.yul\":391:412   */\n      tag_17\n      jump\t// in\n    tag_25:\n        /* \"#utility.yul\":386:389   */\n      dup3\n        /* \"#utility.yul\":379:413   */\n      mstore\n        /* \"#utility.yul\":310:419   */\n      pop\n      pop\n      jump\t// out\n        /* \"#utility.yul\":425:745   */\n    tag_7:\n        /* \"#utility.yul\":540:544   */\n      0x00\n        /* \"#utility.yul\":578:580   */\n      0x40\n        /* \"#utility.yul\":567:576   */\n      dup3\n        /* \"#utility.yul\":563:581   */\n      add\n        /* \"#utility.yul\":555:581   */\n      swap1\n      pop\n        /* \"#utility.yul\":591:662   */\n      tag_27\n        /* \"#utility.yul\":659:660   */\n      0x00\n        /* \"#utility.yul\":648:657   */\n      dup4\n        /* \"#utility.yul\":644:661   */\n      add\n        /* \"#utility.yul\":635:641   */\n      dup6\n        /* \"#utility.yul\":591:662   */\n      tag_16\n      jump\t// in\n    tag_27:\n        /* \"#utility.yul\":672:738   */\n      tag_28\n        /* \"#utility.yul\":734:736   */\n      0x20\n        /* \"#utility.yul\":723:732   */\n      dup4\n        /* \"#utility.yul\":719:737   */\n      add\n        /* \"#utility.yul\":710:716   */\n      dup5\n        /* \"#utility.yul\":672:738   */\n      tag_18\n      jump\t// in\n    tag_28:\n        /* \"#utility.yul\":425:745   */\n      swap4\n      swap3\n      pop\n      pop\n      pop\n      jump\t// out\n\n    auxdata: 0xa2646970667358221220aa6c854581159c6b08864fa832ec15820c5f786c230a2afcf2a01462bb8e487964736f6c63430008150033\n}\n",
				"bytecode": {
					"linkReferences": {},
					"object": "608060405234801561000f575f80fd5b506101178061001d5f395ff3fe6080604052348015600e575f80fd5b50600436106026575f3560e01c806354d44bf714602a575b5f80fd5b60306045565b604051603c92919060be565b60405180910390f35b5f80604d606c565b60536075565b5f5460015f9054906101000a900460ff16915091509091565b60195f81905550565b5f60015f6101000a81548160ff021916908315150217905550565b5f819050919050565b60a0816090565b82525050565b5f8115159050919050565b60b88160a6565b82525050565b5f60408201905060cf5f8301856099565b60da602083018460b1565b939250505056fea2646970667358221220aa6c854581159c6b08864fa832ec15820c5f786c230a2afcf2a01462bb8e487964736f6c63430008150033",
					"opcodes": "PUSH1 0x80 PUSH1 0x40 MSTORE CALLVALUE DUP1 ISZERO PUSH2 0xF JUMPI PUSH0 DUP1 REVERT JUMPDEST POP PUSH2 0x117 DUP1 PUSH2 0x1D PUSH0 CODECOPY PUSH0 RETURN INVALID PUSH1 0x80 PUSH1 0x40 MSTORE CALLVALUE DUP1 ISZERO PUSH1 0xE JUMPI PUSH0 DUP1 REVERT JUMPDEST POP PUSH1 0x4 CALLDATASIZE LT PUSH1 0x26 JUMPI PUSH0 CALLDATALOAD PUSH1 0xE0 SHR DUP1 PUSH4 0x54D44BF7 EQ PUSH1 0x2A JUMPI JUMPDEST PUSH0 DUP1 REVERT JUMPDEST PUSH1 0x30 PUSH1 0x45 JUMP JUMPDEST PUSH1 0x40 MLOAD PUSH1 0x3C SWAP3 SWAP2 SWAP1 PUSH1 0xBE JUMP JUMPDEST PUSH1 0x40 MLOAD DUP1 SWAP2 SUB SWAP1 RETURN JUMPDEST PUSH0 DUP1 PUSH1 0x4D PUSH1 0x6C JUMP JUMPDEST PUSH1 0x53 PUSH1 0x75 JUMP JUMPDEST PUSH0 SLOAD PUSH1 0x1 PUSH0 SWAP1 SLOAD SWAP1 PUSH2 0x100 EXP SWAP1 DIV PUSH1 0xFF AND SWAP2 POP SWAP2 POP SWAP1 SWAP2 JUMP JUMPDEST PUSH1 0x19 PUSH0 DUP2 SWAP1 SSTORE POP JUMP JUMPDEST PUSH0 PUSH1 0x1 PUSH0 PUSH2 0x100 EXP DUP2 SLOAD DUP2 PUSH1 0xFF MUL NOT AND SWAP1 DUP4 ISZERO ISZERO MUL OR SWAP1 SSTORE POP JUMP JUMPDEST PUSH0 DUP2 SWAP1 POP SWAP2 SWAP1 POP JUMP JUMPDEST PUSH1 0xA0 DUP2 PUSH1 0x90 JUMP JUMPDEST DUP3 MSTORE POP POP JUMP JUMPDEST PUSH0 DUP2 ISZERO ISZERO SWAP1 POP SWAP2 SWAP1 POP JUMP JUMPDEST PUSH1 0xB8 DUP2 PUSH1 0xA6 JUMP JUMPDEST DUP3 MSTORE POP POP JUMP JUMPDEST PUSH0 PUSH1 0x40 DUP3 ADD SWAP1 POP PUSH1 0xCF PUSH0 DUP4 ADD DUP6 PUSH1 0x99 JUMP JUMPDEST PUSH1 0xDA PUSH1 0x20 DUP4 ADD DUP5 PUSH1 0xB1 JUMP JUMPDEST SWAP4 SWAP3 POP POP POP JUMP INVALID LOG2 PUSH5 0x6970667358 0x22 SLT KECCAK256 0xAA PUSH13 0x854581159C6B08864FA832EC15 DUP3 0xC PUSH0 PUSH25 0x6C230A2AFCF2A01462BB8E487964736F6C6343000815003300 "
				},
				"gasEstimates": {
					"creation": {
						"codeDepositCost": "55800",
						"executionCost": "103",
						"totalCost": "55903"
					},
					"external": {
						"boot()": "51089"
					},
					"internal": {
						"errorCheck()": "24274",
						"versionCheck()": "22122"
					}
				},
				"methodIdentifiers": {
					"boot()": "54d44bf7"
				}
			},
			"storageLayout": {
				"storage": [
					{
						"astId": 3,
						"contract": "Solidity Use/abst.sol:SmartPhone",
						"label": "version",
						"offset": 0,
						"slot": "0",
						"type": "t_uint256"
					},
					{
						"astId": 5,
						"contract": "Solidity Use/abst.sol:SmartPhone",
						"label": "errorPass",
						"offset": 0,
						"slot": "1",
						"type": "t_bool"
					}
				],
				"types": {
					"t_bool": {
						"encoding": "inplace",
						"label": "bool",
						"numberOfBytes": "1"
					},
					"t_uint256": {
						"encoding": "inplace",
						"label": "uint256",
						"numberOfBytes": "32"
					}
				}
			},
			"userdoc": {
				"kind": "user",
				"methods": {},
				"version": 1
			}
		}
	}
}