{
	"Solidity Use/interface.sol": {
		"Phone": {
			"abi": [
				{
					"inputs": [],
					"name": "boot",
					"outputs": [
						{
							"internalType": "uint256",
							"name": "",
							"type": "uint256"
						},
						{
							"internalType": "bool",
							"name": "",
							"type": "bool"
						}
					],
					"stateMutability": "pure",
					"type": "function"
				},
				{
					"inputs": [],
					"name": "errorCheck",
					"outputs": [
						{
							"internalType": "bool",
							"name": "",
							"type": "bool"
						}
					],
					"stateMutability": "pure",
					"type": "function"
				},
				{
					"inputs": [],
					"name": "versionCheck",
					"outputs": [
						{
							"internalType": "uint256",
							"name": "",
							"type": "uint256"
						}
					],
					"stateMutability": "pure",
					"type": "function"
				}
			],
			"devdoc": {
				"kind": "dev",
				"methods": {},
				"version": 1
			},
			"evm": {
				"assembly": "    /* \"Solidity Use/interface.sol\":571:898  contract Phone is System {... */\n  mstore(0x40, 0x80)\n  callvalue\n  dup1\n  iszero\n  tag_1\n  jumpi\n  0x00\n  dup1\n  revert\ntag_1:\n  pop\n  dataSize(sub_0)\n  dup1\n  dataOffset(sub_0)\n  0x00\n  codecopy\n  0x00\n  return\nstop\n\nsub_0: assembly {\n        /* \"Solidity Use/interface.sol\":571:898  contract Phone is System {... */\n      mstore(0x40, 0x80)\n      callvalue\n      dup1\n      iszero\n      tag_1\n      jumpi\n      0x00\n      dup1\n      revert\n    tag_1:\n      pop\n      jumpi(tag_2, lt(calldatasize, 0x04))\n      shr(0xe0, calldataload(0x00))\n      dup1\n      0x54d44bf7\n      eq\n      tag_3\n      jumpi\n      dup1\n      0x783c2501\n      eq\n      tag_4\n      jumpi\n      dup1\n      0xaddd133c\n      eq\n      tag_5\n      jumpi\n    tag_2:\n      0x00\n      dup1\n      revert\n        /* \"Solidity Use/interface.sol\":784:896  function boot () public pure override returns(uint, bool) {... */\n    tag_3:\n      tag_6\n      tag_7\n      jump\t// in\n    tag_6:\n      mload(0x40)\n      tag_8\n      swap3\n      swap2\n      swap1\n      tag_9\n      jump\t// in\n    tag_8:\n      mload(0x40)\n      dup1\n      swap2\n      sub\n      swap1\n      return\n        /* \"Solidity Use/interface.sol\":602:687  function versionCheck() public pure override returns(uint) {... */\n    tag_4:\n      tag_10\n      tag_11\n      jump\t// in\n    tag_10:\n      mload(0x40)\n      tag_12\n      swap2\n      swap1\n      tag_13\n      jump\t// in\n    tag_12:\n      mload(0x40)\n      dup1\n      swap2\n      sub\n      swap1\n      return\n        /* \"Solidity Use/interface.sol\":693:778  function errorCheck() public pure override returns(bool) {... */\n    tag_5:\n      tag_14\n      tag_15\n      jump\t// in\n    tag_14:\n      mload(0x40)\n      tag_16\n      swap2\n      swap1\n      tag_17\n      jump\t// in\n    tag_16:\n      mload(0x40)\n      dup1\n      swap2\n      sub\n      swap1\n      return\n        /* \"Solidity Use/interface.sol\":784:896  function boot () public pure override returns(uint, bool) {... */\n    tag_7:\n        /* \"Solidity Use/interface.sol\":830:834  uint */\n      0x00\n        /* \"Solidity Use/interface.sol\":836:840  bool */\n      dup1\n        /* \"Solidity Use/interface.sol\":860:874  versionCheck() */\n      tag_19\n        /* \"Solidity Use/interface.sol\":860:872  versionCheck */\n      tag_11\n        /* \"Solidity Use/interface.sol\":860:874  versionCheck() */\n      jump\t// in\n    tag_19:\n        /* \"Solidity Use/interface.sol\":876:888  errorCheck() */\n      tag_20\n        /* \"Solidity Use/interface.sol\":876:886  errorCheck */\n      tag_15\n        /* \"Solidity Use/interface.sol\":876:888  errorCheck() */\n      jump\t// in\n    tag_20:\n        /* \"Solidity Use/interface.sol\":852:889  return (versionCheck(), errorCheck()) */\n      swap2\n      pop\n      swap2\n      pop\n        /* \"Solidity Use/interface.sol\":784:896  function boot () public pure override returns(uint, bool) {... */\n      swap1\n      swap2\n      jump\t// out\n        /* \"Solidity Use/interface.sol\":602:687  function versionCheck() public pure override returns(uint) {... */\n    tag_11:\n        /* \"Solidity Use/interface.sol\":655:659  uint */\n      0x00\n        /* \"Solidity Use/interface.sol\":678:680  25 */\n      0x19\n        /* \"Solidity Use/interface.sol\":671:680  return 25 */\n      swap1\n      pop\n        /* \"Solidity Use/interface.sol\":602:687  function versionCheck() public pure override returns(uint) {... */\n      swap1\n      jump\t// out\n        /* \"Solidity Use/interface.sol\":693:778  function errorCheck() public pure override returns(bool) {... */\n    tag_15:\n        /* \"Solidity Use/interface.sol\":744:748  bool */\n      0x00\n        /* \"Solidity Use/interface.sol\":767:771  true */\n      0x01\n        /* \"Solidity Use/interface.sol\":760:771  return true */\n      swap1\n      pop\n        /* \"Solidity Use/interface.sol\":693:778  function errorCheck() public pure override returns(bool) {... */\n      swap1\n      jump\t// out\n        /* \"#utility.yul\":7:84   */\n    tag_23:\n        /* \"#utility.yul\":44:51   */\n      0x00\n        /* \"#utility.yul\":73:78   */\n      dup2\n        /* \"#utility.yul\":62:78   */\n      swap1\n      pop\n        /* \"#utility.yul\":7:84   */\n      swap2\n      swap1\n      pop\n      jump\t// out\n        /* \"#utility.yul\":90:208   */\n    tag_24:\n        /* \"#utility.yul\":177:201   */\n      tag_30\n        /* \"#utility.yul\":195:200   */\n      dup2\n        /* \"#utility.yul\":177:201   */\n      tag_23\n      jump\t// in\n    tag_30:\n        /* \"#utility.yul\":172:175   */\n      dup3\n        /* \"#utility.yul\":165:202   */\n      mstore\n        /* \"#utility.yul\":90:208   */\n      pop\n      pop\n      jump\t// out\n        /* \"#utility.yul\":214:304   */\n    tag_25:\n        /* \"#utility.yul\":248:255   */\n      0x00\n        /* \"#utility.yul\":291:296   */\n      dup2\n        /* \"#utility.yul\":284:297   */\n      iszero\n        /* \"#utility.yul\":277:298   */\n      iszero\n        /* \"#utility.yul\":266:298   */\n      swap1\n      pop\n        /* \"#utility.yul\":214:304   */\n      swap2\n      swap1\n      pop\n      jump\t// out\n        /* \"#utility.yul\":310:419   */\n    tag_26:\n        /* \"#utility.yul\":391:412   */\n      tag_33\n        /* \"#utility.yul\":406:411   */\n      dup2\n        /* \"#utility.yul\":391:412   */\n      tag_25\n      jump\t// in\n    tag_33:\n        /* \"#utility.yul\":386:389   */\n      dup3\n        /* \"#utility.yul\":379:413   */\n      mstore\n        /* \"#utility.yul\":310:419   */\n      pop\n      pop\n      jump\t// out\n        /* \"#utility.yul\":425:745   */\n    tag_9:\n        /* \"#utility.yul\":540:544   */\n      0x00\n        /* \"#utility.yul\":578:580   */\n      0x40\n        /* \"#utility.yul\":567:576   */\n      dup3\n        /* \"#utility.yul\":563:581   */\n      add\n        /* \"#utility.yul\":555:581   */\n      swap1\n      pop\n        /* \"#utility.yul\":591:662   */\n      tag_35\n        /* \"#utility.yul\":659:660   */\n      0x00\n        /* \"#utility.yul\":648:657   */\n      dup4\n        /* \"#utility.yul\":644:661   */\n      add\n        /* \"#utility.yul\":635:641   */\n      dup6\n        /* \"#utility.yul\":591:662   */\n      tag_24\n      jump\t// in\n    tag_35:\n        /* \"#utility.yul\":672:738   */\n      tag_36\n        /* \"#utility.yul\":734:736   */\n      0x20\n        /* \"#utility.yul\":723:732   */\n      dup4\n        /* \"#utility.yul\":719:737   */\n      add\n        /* \"#utility.yul\":710:716   */\n      dup5\n        /* \"#utility.yul\":672:738   */\n      tag_26\n      jump\t// in\n    tag_36:\n        /* \"#utility.yul\":425:745   */\n      swap4\n      swap3\n      pop\n      pop\n      pop\n      jump\t// out\n        /* \"#utility.yul\":751:973   */\n    tag_13:\n        /* \"#utility.yul\":844:848   */\n      0x00\n        /* \"#utility.yul\":882:884   */\n      0x20\n        /* \"#utility.yul\":871:880   */\n      dup3\n        /* \"#utility.yul\":867:885   */\n      add\n        /* \"#utility.yul\":859:885   */\n      swap1\n      pop\n        /* \"#utility.yul\":895:966   */\n      tag_38\n        /* \"#utility.yul\":963:964   */\n      0x00\n        /* \"#utility.yul\":952:961   */\n      dup4\n        /* \"#utility.yul\":948:965   */\n      add\n        /* \"#utility.yul\":939:945   */\n      dup5\n        /* \"#utility.yul\":895:966   */\n      tag_24\n      jump\t// in\n    tag_38:\n        /* \"#utility.yul\":751:973   */\n      swap3\n      swap2\n      pop\n      pop\n      jump\t// out\n        /* \"#utility.yul\":979:1189   */\n    tag_17:\n        /* \"#utility.yul\":1066:1070   */\n      0x00\n        /* \"#utility.yul\":1104:1106   */\n      0x20\n        /* \"#utility.yul\":1093:1102   */\n      dup3\n        /* \"#utility.yul\":1089:1107   */\n      add\n        /* \"#utility.yul\":1081:1107   */\n      swap1\n      pop\n        /* \"#utility.yul\":1117:1182   */\n      tag_40\n        /* \"#utility.yul\":1179:1180   */\n      0x00\n        /* \"#utility.yul\":1168:1177   */\n      dup4\n        /* \"#utility.yul\":1164:1181   */\n      add\n        /* \"#utility.yul\":1155:1161   */\n      dup5\n        /* \"#utility.yul\":1117:1182   */\n      tag_26\n      jump\t// in\n    tag_40:\n        /* \"#utility.yul\":979:1189   */\n      swap3\n      swap2\n      pop\n      pop\n      jump\t// out\n\n    auxdata: 0xa2646970667358221220ecd863b6e6c88ffef772ae760812484fd9dce29d251b3bda75e072b446208ce664736f6c63430008150033\n}\n",
				"bytecode": {
					"linkReferences": {},
					"object": "608060405234801561000f575f80fd5b506101898061001d5f395ff3fe608060405234801561000f575f80fd5b506004361061003f575f3560e01c806354d44bf714610043578063783c250114610062578063addd133c14610080575b5f80fd5b61004b61009e565b6040516100599291906100fa565b60405180910390f35b61006a6100b8565b6040516100779190610121565b60405180910390f35b6100886100c0565b604051610095919061013a565b60405180910390f35b5f806100a86100b8565b6100b06100c0565b915091509091565b5f6019905090565b5f6001905090565b5f819050919050565b6100da816100c8565b82525050565b5f8115159050919050565b6100f4816100e0565b82525050565b5f60408201905061010d5f8301856100d1565b61011a60208301846100eb565b9392505050565b5f6020820190506101345f8301846100d1565b92915050565b5f60208201905061014d5f8301846100eb565b9291505056fea2646970667358221220ecd863b6e6c88ffef772ae760812484fd9dce29d251b3bda75e072b446208ce664736f6c63430008150033",
					"opcodes": "PUSH1 0x80 PUSH1 0x40 MSTORE CALLVALUE DUP1 ISZERO PUSH2 0xF JUMPI PUSH0 DUP1 REVERT JUMPDEST POP PUSH2 0x189 DUP1 PUSH2 0x1D PUSH0 CODECOPY PUSH0 RETURN INVALID PUSH1 0x80 PUSH1 0x40 MSTORE CALLVALUE DUP1 ISZERO PUSH2 0xF JUMPI PUSH0 DUP1 REVERT JUMPDEST POP PUSH1 0x4 CALLDATASIZE LT PUSH2 0x3F JUMPI PUSH0 CALLDATALOAD PUSH1 0xE0 SHR DUP1 PUSH4 0x54D44BF7 EQ PUSH2 0x43 JUMPI DUP1 PUSH4 0x783C2501 EQ PUSH2 0x62 JUMPI DUP1 PUSH4 0xADDD133C EQ PUSH2 0x80 JUMPI JUMPDEST PUSH0 DUP1 REVERT JUMPDEST PUSH2 0x4B PUSH2 0x9E JUMP JUMPDEST PUSH1 0x40 MLOAD PUSH2 0x59 SWAP3 SWAP2 SWAP1 PUSH2 0xFA JUMP JUMPDEST PUSH1 0x40 MLOAD DUP1 SWAP2 SUB SWAP1 RETURN JUMPDEST PUSH2 0x6A PUSH2 0xB8 JUMP JUMPDEST PUSH1 0x40 MLOAD PUSH2 0x77 SWAP2 SWAP1 PUSH2 0x121 JUMP JUMPDEST PUSH1 0x40 MLOAD DUP1 SWAP2 SUB SWAP1 RETURN JUMPDEST PUSH2 0x88 PUSH2 0xC0 JUMP JUMPDEST PUSH1 0x40 MLOAD PUSH2 0x95 SWAP2 SWAP1 PUSH2 0x13A JUMP JUMPDEST PUSH1 0x40 MLOAD DUP1 SWAP2 SUB SWAP1 RETURN JUMPDEST PUSH0 DUP1 PUSH2 0xA8 PUSH2 0xB8 JUMP JUMPDEST PUSH2 0xB0 PUSH2 0xC0 JUMP JUMPDEST SWAP2 POP SWAP2 POP SWAP1 SWAP2 JUMP JUMPDEST PUSH0 PUSH1 0x19 SWAP1 POP SWAP1 JUMP JUMPDEST PUSH0 PUSH1 0x1 SWAP1 POP SWAP1 JUMP JUMPDEST PUSH0 DUP2 SWAP1 POP SWAP2 SWAP1 POP JUMP JUMPDEST PUSH2 0xDA DUP2 PUSH2 0xC8 JUMP JUMPDEST DUP3 MSTORE POP POP JUMP JUMPDEST PUSH0 DUP2 ISZERO ISZERO SWAP1 POP SWAP2 SWAP1 POP JUMP JUMPDEST PUSH2 0xF4 DUP2 PUSH2 0xE0 JUMP JUMPDEST DUP3 MSTORE POP POP JUMP JUMPDEST PUSH0 PUSH1 0x40 DUP3 ADD SWAP1 POP PUSH2 0x10D PUSH0 DUP4 ADD DUP6 PUSH2 0xD1 JUMP JUMPDEST PUSH2 0x11A PUSH1 0x20 DUP4 ADD DUP5 PUSH2 0xEB JUMP JUMPDEST SWAP4 SWAP3 POP POP POP JUMP JUMPDEST PUSH0 PUSH1 0x20 DUP3 ADD SWAP1 POP PUSH2 0x134 PUSH0 DUP4 ADD DUP5 PUSH2 0xD1 JUMP JUMPDEST SWAP3 SWAP2 POP POP JUMP JUMPDEST PUSH0 PUSH1 0x20 DUP3 ADD SWAP1 POP PUSH2 0x14D PUSH0 DUP4 ADD DUP5 PUSH2 0xEB JUMP JUMPDEST SWAP3 SWAP2 POP POP JUMP INVALID LOG2 PUSH5 0x6970667358 0x22 SLT KECCAK256 0xEC 0xD8 PUSH4 0xB6E6C88F INVALID 0xF7 PUSH19 0xAE760812484FD9DCE29D251B3BDA75E072B446 KECCAK256 DUP13 0xE6 PUSH5 0x736F6C6343 STOP ADDMOD ISZERO STOP CALLER "
				},
				"gasEstimates": {
					"creation": {
						"codeDepositCost": "78600",
						"executionCost": "127",
						"totalCost": "78727"
					},
					"external": {
						"boot()": "497",
						"errorCheck()": "360",
						"versionCheck()": "332"
					}
				},
				"methodIdentifiers": {
					"boot()": "54d44bf7",
					"errorCheck()": "addd133c",
					"versionCheck()": "783c2501"
				}
			},
			"storageLayout": {
				"storage": [],
				"types": null
			},
			"userdoc": {
				"kind": "user",
				"methods": {},
				"version": 1
			}
		}
	}
}