{
	"data": {
		"bytecode": {
			"linkReferences": {},
			"object": "608060405234801561000f575f80fd5b506104a48061001d5f395ff3fe608060405234801561000f575f80fd5b5060043610610055575f3560e01c806306fdde03146100595780631f6649e3146100775780632ff2e9dc14610095578063313ce567146100b35780633a756cec146100d1575b5f80fd5b6100616100ef565b60405161006e91906101de565b60405180910390f35b61007f610128565b60405161008c9190610216565b60405180910390f35b61009d61012d565b6040516100aa9190610216565b60405180910390f35b6100bb61014b565b6040516100c89190610216565b60405180910390f35b6100d9610150565b6040516100e6919061026e565b60405180910390f35b6040518060400160405280600a81526020017f5445535420746f6b656e0000000000000000000000000000000000000000000081525081565b607b81565b6012600a61013b91906103e3565b6103e8610148919061042d565b81565b601281565b5f81565b5f81519050919050565b5f82825260208201905092915050565b5f5b8381101561018b578082015181840152602081019050610170565b5f8484015250505050565b5f601f19601f8301169050919050565b5f6101b082610154565b6101ba818561015e565b93506101ca81856020860161016e565b6101d381610196565b840191505092915050565b5f6020820190508181035f8301526101f681846101a6565b905092915050565b5f819050919050565b610210816101fe565b82525050565b5f6020820190506102295f830184610207565b92915050565b5f73ffffffffffffffffffffffffffffffffffffffff82169050919050565b5f6102588261022f565b9050919050565b6102688161024e565b82525050565b5f6020820190506102815f83018461025f565b92915050565b7f4e487b71000000000000000000000000000000000000000000000000000000005f52601160045260245ffd5b5f8160011c9050919050565b5f808291508390505b6001851115610309578086048111156102e5576102e4610287565b5b60018516156102f45780820291505b8081029050610302856102b4565b94506102c9565b94509492505050565b5f8261032157600190506103dc565b8161032e575f90506103dc565b8160018114610344576002811461034e5761037d565b60019150506103dc565b60ff8411156103605761035f610287565b5b8360020a91508482111561037757610376610287565b5b506103dc565b5060208310610133831016604e8410600b84101617156103b25782820a9050838111156103ad576103ac610287565b5b6103dc565b6103bf84848460016102c0565b925090508184048111156103d6576103d5610287565b5b81810290505b9392505050565b5f6103ed826101fe565b91506103f8836101fe565b92506104257fffffffffffffffffffffffffffffffffffffffffffffffffffffffffffffffff8484610312565b905092915050565b5f610437826101fe565b9150610442836101fe565b9250828202610450816101fe565b9150828204841483151761046757610466610287565b5b509291505056fea2646970667358221220827f171b79fdbce6b5b1b3ff053e5769af910871370200ac13fe865782565b8b64736f6c63430008150033",
			"opcodes": "PUSH1 0x80 PUSH1 0x40 MSTORE CALLVALUE DUP1 ISZERO PUSH2 0xF JUMPI PUSH0 DUP1 REVERT JUMPDEST POP PUSH2 0x4A4 DUP1 PUSH2 0x1D PUSH0 CODECOPY PUSH0 RETURN INVALID PUSH1 0x80 PUSH1 0x40 MSTORE CALLVALUE DUP1 ISZERO PUSH2 0xF JUMPI PUSH0 DUP1 REVERT JUMPDEST POP PUSH1 0x4 CALLDATASIZE LT PUSH2 0x55 JUMPI PUSH0 CALLDATALOAD PUSH1 0xE0 SHR DUP1 PUSH4 0x6FDDE03 EQ PUSH2 0x59 JUMPI DUP1 PUSH4 0x1F6649E3 EQ PUSH2 0x77 JUMPI DUP1 PUSH4 0x2FF2E9DC EQ PUSH2 0x95 JUMPI DUP1 PUSH4 0x313CE567 EQ PUSH2 0xB3 JUMPI DUP1 PUSH4 0x3A756CEC EQ PUSH2 0xD1 JUMPI JUMPDEST PUSH0 DUP1 REVERT JUMPDEST PUSH2 0x61 PUSH2 0xEF JUMP JUMPDEST PUSH1 0x40 MLOAD PUSH2 0x6E SWAP2 SWAP1 PUSH2 0x1DE JUMP JUMPDEST PUSH1 0x40 MLOAD DUP1 SWAP2 SUB SWAP1 RETURN JUMPDEST PUSH2 0x7F PUSH2 0x128 JUMP JUMPDEST PUSH1 0x40 MLOAD PUSH2 0x8C SWAP2 SWAP1 PUSH2 0x216 JUMP JUMPDEST PUSH1 0x40 MLOAD DUP1 SWAP2 SUB SWAP1 RETURN JUMPDEST PUSH2 0x9D PUSH2 0x12D JUMP JUMPDEST PUSH1 0x40 MLOAD PUSH2 0xAA SWAP2 SWAP1 PUSH2 0x216 JUMP JUMPDEST PUSH1 0x40 MLOAD DUP1 SWAP2 SUB SWAP1 RETURN JUMPDEST PUSH2 0xBB PUSH2 0x14B JUMP JUMPDEST PUSH1 0x40 MLOAD PUSH2 0xC8 SWAP2 SWAP1 PUSH2 0x216 JUMP JUMPDEST PUSH1 0x40 MLOAD DUP1 SWAP2 SUB SWAP1 RETURN JUMPDEST PUSH2 0xD9 PUSH2 0x150 JUMP JUMPDEST PUSH1 0x40 MLOAD PUSH2 0xE6 SWAP2 SWAP1 PUSH2 0x26E JUMP JUMPDEST PUSH1 0x40 MLOAD DUP1 SWAP2 SUB SWAP1 RETURN JUMPDEST PUSH1 0x40 MLOAD DUP1 PUSH1 0x40 ADD PUSH1 0x40 MSTORE DUP1 PUSH1 0xA DUP2 MSTORE PUSH1 0x20 ADD PUSH32 0x5445535420746F6B656E00000000000000000000000000000000000000000000 DUP2 MSTORE POP DUP2 JUMP JUMPDEST PUSH1 0x7B DUP2 JUMP JUMPDEST PUSH1 0x12 PUSH1 0xA PUSH2 0x13B SWAP2 SWAP1 PUSH2 0x3E3 JUMP JUMPDEST PUSH2 0x3E8 PUSH2 0x148 SWAP2 SWAP1 PUSH2 0x42D JUMP JUMPDEST DUP2 JUMP JUMPDEST PUSH1 0x12 DUP2 JUMP JUMPDEST PUSH0 DUP2 JUMP JUMPDEST PUSH0 DUP2 MLOAD SWAP1 POP SWAP2 SWAP1 POP JUMP JUMPDEST PUSH0 DUP3 DUP3 MSTORE PUSH1 0x20 DUP3 ADD SWAP1 POP SWAP3 SWAP2 POP POP JUMP JUMPDEST PUSH0 JUMPDEST DUP4 DUP2 LT ISZERO PUSH2 0x18B JUMPI DUP1 DUP3 ADD MLOAD DUP2 DUP5 ADD MSTORE PUSH1 0x20 DUP2 ADD SWAP1 POP PUSH2 0x170 JUMP JUMPDEST PUSH0 DUP5 DUP5 ADD MSTORE POP POP POP POP JUMP JUMPDEST PUSH0 PUSH1 0x1F NOT PUSH1 0x1F DUP4 ADD AND SWAP1 POP SWAP2 SWAP1 POP JUMP JUMPDEST PUSH0 PUSH2 0x1B0 DUP3 PUSH2 0x154 JUMP JUMPDEST PUSH2 0x1BA DUP2 DUP6 PUSH2 0x15E JUMP JUMPDEST SWAP4 POP PUSH2 0x1CA DUP2 DUP6 PUSH1 0x20 DUP7 ADD PUSH2 0x16E JUMP JUMPDEST PUSH2 0x1D3 DUP2 PUSH2 0x196 JUMP JUMPDEST DUP5 ADD SWAP2 POP POP SWAP3 SWAP2 POP POP JUMP JUMPDEST PUSH0 PUSH1 0x20 DUP3 ADD SWAP1 POP DUP2 DUP2 SUB PUSH0 DUP4 ADD MSTORE PUSH2 0x1F6 DUP2 DUP5 PUSH2 0x1A6 JUMP JUMPDEST SWAP1 POP SWAP3 SWAP2 POP POP JUMP JUMPDEST PUSH0 DUP2 SWAP1 POP SWAP2 SWAP1 POP JUMP JUMPDEST PUSH2 0x210 DUP2 PUSH2 0x1FE JUMP JUMPDEST DUP3 MSTORE POP POP JUMP JUMPDEST PUSH0 PUSH1 0x20 DUP3 ADD SWAP1 POP PUSH2 0x229 PUSH0 DUP4 ADD DUP5 PUSH2 0x207 JUMP JUMPDEST SWAP3 SWAP2 POP POP JUMP JUMPDEST PUSH0 PUSH20 0xFFFFFFFFFFFFFFFFFFFFFFFFFFFFFFFFFFFFFFFF DUP3 AND SWAP1 POP SWAP2 SWAP1 POP JUMP JUMPDEST PUSH0 PUSH2 0x258 DUP3 PUSH2 0x22F JUMP JUMPDEST SWAP1 POP SWAP2 SWAP1 POP JUMP JUMPDEST PUSH2 0x268 DUP2 PUSH2 0x24E JUMP JUMPDEST DUP3 MSTORE POP POP JUMP JUMPDEST PUSH0 PUSH1 0x20 DUP3 ADD SWAP1 POP PUSH2 0x281 PUSH0 DUP4 ADD DUP5 PUSH2 0x25F JUMP JUMPDEST SWAP3 SWAP2 POP POP JUMP JUMPDEST PUSH32 0x4E487B7100000000000000000000000000000000000000000000000000000000 PUSH0 MSTORE PUSH1 0x11 PUSH1 0x4 MSTORE PUSH1 0x24 PUSH0 REVERT JUMPDEST PUSH0 DUP2 PUSH1 0x1 SHR SWAP1 POP SWAP2 SWAP1 POP JUMP JUMPDEST PUSH0 DUP1 DUP3 SWAP2 POP DUP4 SWAP1 POP JUMPDEST PUSH1 0x1 DUP6 GT ISZERO PUSH2 0x309 JUMPI DUP1 DUP7 DIV DUP2 GT ISZERO PUSH2 0x2E5 JUMPI PUSH2 0x2E4 PUSH2 0x287 JUMP JUMPDEST JUMPDEST PUSH1 0x1 DUP6 AND ISZERO PUSH2 0x2F4 JUMPI DUP1 DUP3 MUL SWAP2 POP JUMPDEST DUP1 DUP2 MUL SWAP1 POP PUSH2 0x302 DUP6 PUSH2 0x2B4 JUMP JUMPDEST SWAP5 POP PUSH2 0x2C9 JUMP JUMPDEST SWAP5 POP SWAP5 SWAP3 POP POP POP JUMP JUMPDEST PUSH0 DUP3 PUSH2 0x321 JUMPI PUSH1 0x1 SWAP1 POP PUSH2 0x3DC JUMP JUMPDEST DUP2 PUSH2 0x32E JUMPI PUSH0 SWAP1 POP PUSH2 0x3DC JUMP JUMPDEST DUP2 PUSH1 0x1 DUP2 EQ PUSH2 0x344 JUMPI PUSH1 0x2 DUP2 EQ PUSH2 0x34E JUMPI PUSH2 0x37D JUMP JUMPDEST PUSH1 0x1 SWAP2 POP POP PUSH2 0x3DC JUMP JUMPDEST PUSH1 0xFF DUP5 GT ISZERO PUSH2 0x360 JUMPI PUSH2 0x35F PUSH2 0x287 JUMP JUMPDEST JUMPDEST DUP4 PUSH1 0x2 EXP SWAP2 POP DUP5 DUP3 GT ISZERO PUSH2 0x377 JUMPI PUSH2 0x376 PUSH2 0x287 JUMP JUMPDEST JUMPDEST POP PUSH2 0x3DC JUMP JUMPDEST POP PUSH1 0x20 DUP4 LT PUSH2 0x133 DUP4 LT AND PUSH1 0x4E DUP5 LT PUSH1 0xB DUP5 LT AND OR ISZERO PUSH2 0x3B2 JUMPI DUP3 DUP3 EXP SWAP1 POP DUP4 DUP2 GT ISZERO PUSH2 0x3AD JUMPI PUSH2 0x3AC PUSH2 0x287 JUMP JUMPDEST JUMPDEST PUSH2 0x3DC JUMP JUMPDEST PUSH2 0x3BF DUP5 DUP5 DUP5 PUSH1 0x1 PUSH2 0x2C0 JUMP JUMPDEST SWAP3 POP SWAP1 POP DUP2 DUP5 DIV DUP2 GT ISZERO PUSH2 0x3D6 JUMPI PUSH2 0x3D5 PUSH2 0x287 JUMP JUMPDEST JUMPDEST DUP2 DUP2 MUL SWAP1 POP JUMPDEST SWAP4 SWAP3 POP POP POP JUMP JUMPDEST PUSH0 PUSH2 0x3ED DUP3 PUSH2 0x1FE JUMP JUMPDEST SWAP2 POP PUSH2 0x3F8 DUP4 PUSH2 0x1FE JUMP JUMPDEST SWAP3 POP PUSH2 0x425 PUSH32 0xFFFFFFFFFFFFFFFFFFFFFFFFFFFFFFFFFFFFFFFFFFFFFFFFFFFFFFFFFFFFFFFF DUP5 DUP5 PUSH2 0x312 JUMP JUMPDEST SWAP1 POP SWAP3 SWAP2 POP POP JUMP JUMPDEST PUSH0 PUSH2 0x437 DUP3 PUSH2 0x1FE JUMP JUMPDEST SWAP2 POP PUSH2 0x442 DUP4 PUSH2 0x1FE JUMP JUMPDEST SWAP3 POP DUP3 DUP3 MUL PUSH2 0x450 DUP2 PUSH2 0x1FE JUMP JUMPDEST SWAP2 POP DUP3 DUP3 DIV DUP5 EQ DUP4 ISZERO OR PUSH2 0x467 JUMPI PUSH2 0x466 PUSH2 0x287 JUMP JUMPDEST JUMPDEST POP SWAP3 SWAP2 POP POP JUMP INVALID LOG2 PUSH5 0x6970667358 0x22 SLT KECCAK256 DUP3 PUSH32 0x171B79FDBCE6B5B1B3FF053E5769AF910871370200AC13FE865782565B8B6473 PUSH16 0x6C634300081500330000000000000000 "
		},
		"gasEstimates": {
			"creation": {
				"codeDepositCost": "237600",
				"executionCost": "279",
				"totalCost": "237879"
			},
			"external": {
				"INITIAL_SUPPLY()": "infinite",
				"MY_ADDRESS()": "438",
				"MY_UINT()": "325",
				"decimals()": "369",
				"name()": "infinite"
			}
		},
		"methodIdentifiers": {
			"INITIAL_SUPPLY()": "2ff2e9dc",
			"MY_ADDRESS()": "3a756cec",
			"MY_UINT()": "1f6649e3",
			"decimals()": "313ce567",
			"name()": "06fdde03"
		}
	},
	"abi": [
		{
			"inputs": [],
			"name": "INITIAL_SUPPLY",
			"outputs": [
				{
					"internalType": "uint256",
					"name": "",
					"type": "uint256"
				}
			],
			"stateMutability": "view",
			"type": "function"
		},
		{
			"inputs": [],
			"name": "MY_ADDRESS",
			"outputs": [
				{
					"internalType": "address",
					"name": "",
					"type": "address"
				}
			],
			"stateMutability": "view",
			"type": "function"
		},
		{
			"inputs": [],
			"name": "MY_UINT",
			"outputs": [
				{
					"internalType": "uint256",
					"name": "",
					"type": "uint256"
				}
			],
			"stateMutability": "view",
			"type": "function"
		},
		{
			"inputs": [],
			"name": "decimals",
			"outputs": [
				{
					"internalType": "uint256",
					"name": "",
					"type": "uint256"
				}
			],
			"stateMutability": "view",
			"type": "function"
		},
		{
			"inputs": [],
			"name": "name",
			"outputs": [
				{
					"internalType": "string",
					"name": "",
					"type": "string"
				}
			],
			"stateMutability": "view",
			"type": "function"
		}
	]
}