{
	"Solidity Grammer/Error/3.sol": {
		"trycatch": {
			"abi": [
				{
					"anonymous": false,
					"inputs": [
						{
							"indexed": false,
							"internalType": "string",
							"name": "_error",
							"type": "string"
						}
					],
					"name": "Information",
					"type": "event"
				},
				{
					"inputs": [
						{
							"internalType": "uint256",
							"name": "_age",
							"type": "uint256"
						}
					],
					"name": "instantiate",
					"outputs": [
						{
							"internalType": "uint256",
							"name": "",
							"type": "uint256"
						}
					],
					"stateMutability": "nonpayable",
					"type": "function"
				}
			],
			"devdoc": {
				"kind": "dev",
				"methods": {},
				"version": 1
			},
			"evm": {
				"assembly": "    /* \"Solidity Grammer/Error/3.sol\":217:633  contract trycatch{... */\n  mstore(0x40, 0x80)\n  callvalue\n  dup1\n  iszero\n  tag_1\n  jumpi\n  0x00\n  dup1\n  revert\ntag_1:\n  pop\n  dataSize(sub_0)\n  dup1\n  dataOffset(sub_0)\n  0x00\n  codecopy\n  0x00\n  return\nstop\n\nsub_0: assembly {\n        /* \"Solidity Grammer/Error/3.sol\":217:633  contract trycatch{... */\n      mstore(0x40, 0x80)\n      callvalue\n      dup1\n      iszero\n      tag_1\n      jumpi\n      0x00\n      dup1\n      revert\n    tag_1:\n      pop\n      jumpi(tag_2, lt(calldatasize, 0x04))\n      shr(0xe0, calldataload(0x00))\n      dup1\n      0xd96f685e\n      eq\n      tag_3\n      jumpi\n    tag_2:\n      0x00\n      dup1\n      revert\n        /* \"Solidity Grammer/Error/3.sol\":279:631  function instantiate(uint _age) public returns(uint) {... */\n    tag_3:\n      tag_4\n      0x04\n      dup1\n      calldatasize\n      sub\n      dup2\n      add\n      swap1\n      tag_5\n      swap2\n      swap1\n      tag_6\n      jump\t// in\n    tag_5:\n      tag_7\n      jump\t// in\n    tag_4:\n      mload(0x40)\n      tag_8\n      swap2\n      swap1\n      tag_9\n      jump\t// in\n    tag_8:\n      mload(0x40)\n      dup1\n      swap2\n      sub\n      swap1\n      return\n    tag_7:\n        /* \"Solidity Grammer/Error/3.sol\":326:330  uint */\n      0x00\n        /* \"Solidity Grammer/Error/3.sol\":356:360  _age */\n      dup2\n        /* \"Solidity Grammer/Error/3.sol\":346:361  new Adult(_age) */\n      mload(0x40)\n      tag_11\n      swap1\n      tag_12\n      jump\t// in\n    tag_11:\n      tag_13\n      swap2\n      swap1\n      tag_9\n      jump\t// in\n    tag_13:\n      mload(0x40)\n      dup1\n      swap2\n      sub\n      swap1\n      0x00\n      create\n      dup1\n      iszero\n      tag_14\n      jumpi\n      0x01\n    tag_14:\n        /* \"Solidity Grammer/Error/3.sol\":342:625  try new Adult(_age) returns(Adult adult) {... */\n      tag_15\n      jumpi\n        /* \"Solidity Grammer/Error/3.sol\":495:540  Information(\"Failed : the default age is 20\") */\n      0xff8fea957fb7cb582ef297c1c74436fe7a9914efbc52adf197600dc9d171efbc\n      mload(0x40)\n      tag_19\n      swap1\n      tag_20\n      jump\t// in\n    tag_19:\n      mload(0x40)\n      dup1\n      swap2\n      sub\n      swap1\n      log1\n        /* \"Solidity Grammer/Error/3.sol\":554:565  Adult adult */\n      0x00\n        /* \"Solidity Grammer/Error/3.sol\":578:580  20 */\n      0x14\n        /* \"Solidity Grammer/Error/3.sol\":568:581  new Adult(20) */\n      mload(0x40)\n      tag_21\n      swap1\n      tag_12\n      jump\t// in\n    tag_21:\n      tag_22\n      swap2\n      swap1\n      tag_23\n      jump\t// in\n    tag_22:\n      mload(0x40)\n      dup1\n      swap2\n      sub\n      swap1\n      0x00\n      create\n      dup1\n      iszero\n      dup1\n      iszero\n      tag_24\n      jumpi\n      returndatasize\n      0x00\n      dup1\n      returndatacopy\n      revert(0x00, returndatasize)\n    tag_24:\n      pop\n        /* \"Solidity Grammer/Error/3.sol\":554:581  Adult adult = new Adult(20) */\n      swap1\n      pop\n        /* \"Solidity Grammer/Error/3.sol\":602:607  adult */\n      dup1\n        /* \"Solidity Grammer/Error/3.sol\":602:611  adult.age */\n      0xffffffffffffffffffffffffffffffffffffffff\n      and\n      0x262a9dff\n        /* \"Solidity Grammer/Error/3.sol\":602:613  adult.age() */\n      mload(0x40)\n      dup2\n      0xffffffff\n      and\n      0xe0\n      shl\n      dup2\n      mstore\n      0x04\n      add\n      0x20\n      mload(0x40)\n      dup1\n      dup4\n      sub\n      dup2\n      dup7\n      gas\n      staticcall\n      iszero\n      dup1\n      iszero\n      tag_26\n      jumpi\n      returndatasize\n      0x00\n      dup1\n      returndatacopy\n      revert(0x00, returndatasize)\n    tag_26:\n      pop\n      pop\n      pop\n      pop\n      mload(0x40)\n      returndatasize\n      not(0x1f)\n      0x1f\n      dup3\n      add\n      and\n      dup3\n      add\n      dup1\n      0x40\n      mstore\n      pop\n      dup2\n      add\n      swap1\n      tag_27\n      swap2\n      swap1\n      tag_28\n      jump\t// in\n    tag_27:\n        /* \"Solidity Grammer/Error/3.sol\":595:614  return(adult.age()) */\n      swap2\n      pop\n      pop\n      jump(tag_10)\n        /* \"Solidity Grammer/Error/3.sol\":342:625  try new Adult(_age) returns(Adult adult) {... */\n    tag_15:\n        /* \"Solidity Grammer/Error/3.sol\":402:424  Information(\"Success\") */\n      0xff8fea957fb7cb582ef297c1c74436fe7a9914efbc52adf197600dc9d171efbc\n      mload(0x40)\n      tag_30\n      swap1\n      tag_31\n      jump\t// in\n    tag_30:\n      mload(0x40)\n      dup1\n      swap2\n      sub\n      swap1\n      log1\n        /* \"Solidity Grammer/Error/3.sol\":446:451  adult */\n      dup1\n        /* \"Solidity Grammer/Error/3.sol\":446:455  adult.age */\n      0xffffffffffffffffffffffffffffffffffffffff\n      and\n      0x262a9dff\n        /* \"Solidity Grammer/Error/3.sol\":446:457  adult.age() */\n      mload(0x40)\n      dup2\n      0xffffffff\n      and\n      0xe0\n      shl\n      dup2\n      mstore\n      0x04\n      add\n      0x20\n      mload(0x40)\n      dup1\n      dup4\n      sub\n      dup2\n      dup7\n      gas\n      staticcall\n      iszero\n      dup1\n      iszero\n      tag_33\n      jumpi\n      returndatasize\n      0x00\n      dup1\n      returndatacopy\n      revert(0x00, returndatasize)\n    tag_33:\n      pop\n      pop\n      pop\n      pop\n      mload(0x40)\n      returndatasize\n      not(0x1f)\n      0x1f\n      dup3\n      add\n      and\n      dup3\n      add\n      dup1\n      0x40\n      mstore\n      pop\n      dup2\n      add\n      swap1\n      tag_34\n      swap2\n      swap1\n      tag_28\n      jump\t// in\n    tag_34:\n        /* \"Solidity Grammer/Error/3.sol\":438:458  return (adult.age()) */\n      swap2\n      pop\n      pop\n        /* \"Solidity Grammer/Error/3.sol\":279:631  function instantiate(uint _age) public returns(uint) {... */\n    tag_10:\n      swap2\n      swap1\n      pop\n      jump\t// out\n    tag_12:\n      dataSize(sub_0)\n      dup1\n      dataOffset(sub_0)\n      dup4\n      codecopy\n      add\n      swap1\n      jump\t// out\n        /* \"#utility.yul\":88:205   */\n    tag_36:\n        /* \"#utility.yul\":197:198   */\n      0x00\n        /* \"#utility.yul\":194:195   */\n      dup1\n        /* \"#utility.yul\":187:199   */\n      revert\n        /* \"#utility.yul\":334:411   */\n    tag_38:\n        /* \"#utility.yul\":371:378   */\n      0x00\n        /* \"#utility.yul\":400:405   */\n      dup2\n        /* \"#utility.yul\":389:405   */\n      swap1\n      pop\n        /* \"#utility.yul\":334:411   */\n      swap2\n      swap1\n      pop\n      jump\t// out\n        /* \"#utility.yul\":417:539   */\n    tag_39:\n        /* \"#utility.yul\":490:514   */\n      tag_58\n        /* \"#utility.yul\":508:513   */\n      dup2\n        /* \"#utility.yul\":490:514   */\n      tag_38\n      jump\t// in\n    tag_58:\n        /* \"#utility.yul\":483:488   */\n      dup2\n        /* \"#utility.yul\":480:515   */\n      eq\n        /* \"#utility.yul\":470:533   */\n      tag_59\n      jumpi\n        /* \"#utility.yul\":529:530   */\n      0x00\n        /* \"#utility.yul\":526:527   */\n      dup1\n        /* \"#utility.yul\":519:531   */\n      revert\n        /* \"#utility.yul\":470:533   */\n    tag_59:\n        /* \"#utility.yul\":417:539   */\n      pop\n      jump\t// out\n        /* \"#utility.yul\":545:684   */\n    tag_40:\n        /* \"#utility.yul\":591:596   */\n      0x00\n        /* \"#utility.yul\":629:635   */\n      dup2\n        /* \"#utility.yul\":616:636   */\n      calldataload\n        /* \"#utility.yul\":607:636   */\n      swap1\n      pop\n        /* \"#utility.yul\":645:678   */\n      tag_61\n        /* \"#utility.yul\":672:677   */\n      dup2\n        /* \"#utility.yul\":645:678   */\n      tag_39\n      jump\t// in\n    tag_61:\n        /* \"#utility.yul\":545:684   */\n      swap3\n      swap2\n      pop\n      pop\n      jump\t// out\n        /* \"#utility.yul\":690:1019   */\n    tag_6:\n        /* \"#utility.yul\":749:755   */\n      0x00\n        /* \"#utility.yul\":798:800   */\n      0x20\n        /* \"#utility.yul\":786:795   */\n      dup3\n        /* \"#utility.yul\":777:784   */\n      dup5\n        /* \"#utility.yul\":773:796   */\n      sub\n        /* \"#utility.yul\":769:801   */\n      slt\n        /* \"#utility.yul\":766:885   */\n      iszero\n      tag_63\n      jumpi\n        /* \"#utility.yul\":804:883   */\n      tag_64\n      tag_36\n      jump\t// in\n    tag_64:\n        /* \"#utility.yul\":766:885   */\n    tag_63:\n        /* \"#utility.yul\":924:925   */\n      0x00\n        /* \"#utility.yul\":949:1002   */\n      tag_65\n        /* \"#utility.yul\":994:1001   */\n      dup5\n        /* \"#utility.yul\":985:991   */\n      dup3\n        /* \"#utility.yul\":974:983   */\n      dup6\n        /* \"#utility.yul\":970:992   */\n      add\n        /* \"#utility.yul\":949:1002   */\n      tag_40\n      jump\t// in\n    tag_65:\n        /* \"#utility.yul\":939:1002   */\n      swap2\n      pop\n        /* \"#utility.yul\":895:1012   */\n      pop\n        /* \"#utility.yul\":690:1019   */\n      swap3\n      swap2\n      pop\n      pop\n      jump\t// out\n        /* \"#utility.yul\":1025:1143   */\n    tag_41:\n        /* \"#utility.yul\":1112:1136   */\n      tag_67\n        /* \"#utility.yul\":1130:1135   */\n      dup2\n        /* \"#utility.yul\":1112:1136   */\n      tag_38\n      jump\t// in\n    tag_67:\n        /* \"#utility.yul\":1107:1110   */\n      dup3\n        /* \"#utility.yul\":1100:1137   */\n      mstore\n        /* \"#utility.yul\":1025:1143   */\n      pop\n      pop\n      jump\t// out\n        /* \"#utility.yul\":1149:1371   */\n    tag_9:\n        /* \"#utility.yul\":1242:1246   */\n      0x00\n        /* \"#utility.yul\":1280:1282   */\n      0x20\n        /* \"#utility.yul\":1269:1278   */\n      dup3\n        /* \"#utility.yul\":1265:1283   */\n      add\n        /* \"#utility.yul\":1257:1283   */\n      swap1\n      pop\n        /* \"#utility.yul\":1293:1364   */\n      tag_69\n        /* \"#utility.yul\":1361:1362   */\n      0x00\n        /* \"#utility.yul\":1350:1359   */\n      dup4\n        /* \"#utility.yul\":1346:1363   */\n      add\n        /* \"#utility.yul\":1337:1343   */\n      dup5\n        /* \"#utility.yul\":1293:1364   */\n      tag_41\n      jump\t// in\n    tag_69:\n        /* \"#utility.yul\":1149:1371   */\n      swap3\n      swap2\n      pop\n      pop\n      jump\t// out\n        /* \"#utility.yul\":1377:1546   */\n    tag_42:\n        /* \"#utility.yul\":1461:1472   */\n      0x00\n        /* \"#utility.yul\":1495:1501   */\n      dup3\n        /* \"#utility.yul\":1490:1493   */\n      dup3\n        /* \"#utility.yul\":1483:1502   */\n      mstore\n        /* \"#utility.yul\":1535:1539   */\n      0x20\n        /* \"#utility.yul\":1530:1533   */\n      dup3\n        /* \"#utility.yul\":1526:1540   */\n      add\n        /* \"#utility.yul\":1511:1540   */\n      swap1\n      pop\n        /* \"#utility.yul\":1377:1546   */\n      swap3\n      swap2\n      pop\n      pop\n      jump\t// out\n        /* \"#utility.yul\":1552:1732   */\n    tag_43:\n        /* \"#utility.yul\":1692:1724   */\n      0x4661696c6564203a207468652064656661756c74206167652069732032300000\n        /* \"#utility.yul\":1688:1689   */\n      0x00\n        /* \"#utility.yul\":1680:1686   */\n      dup3\n        /* \"#utility.yul\":1676:1690   */\n      add\n        /* \"#utility.yul\":1669:1725   */\n      mstore\n        /* \"#utility.yul\":1552:1732   */\n      pop\n      jump\t// out\n        /* \"#utility.yul\":1738:2104   */\n    tag_44:\n        /* \"#utility.yul\":1880:1883   */\n      0x00\n        /* \"#utility.yul\":1901:1968   */\n      tag_73\n        /* \"#utility.yul\":1965:1967   */\n      0x1e\n        /* \"#utility.yul\":1960:1963   */\n      dup4\n        /* \"#utility.yul\":1901:1968   */\n      tag_42\n      jump\t// in\n    tag_73:\n        /* \"#utility.yul\":1894:1968   */\n      swap2\n      pop\n        /* \"#utility.yul\":1977:2070   */\n      tag_74\n        /* \"#utility.yul\":2066:2069   */\n      dup3\n        /* \"#utility.yul\":1977:2070   */\n      tag_43\n      jump\t// in\n    tag_74:\n        /* \"#utility.yul\":2095:2097   */\n      0x20\n        /* \"#utility.yul\":2090:2093   */\n      dup3\n        /* \"#utility.yul\":2086:2098   */\n      add\n        /* \"#utility.yul\":2079:2098   */\n      swap1\n      pop\n        /* \"#utility.yul\":1738:2104   */\n      swap2\n      swap1\n      pop\n      jump\t// out\n        /* \"#utility.yul\":2110:2529   */\n    tag_20:\n        /* \"#utility.yul\":2276:2280   */\n      0x00\n        /* \"#utility.yul\":2314:2316   */\n      0x20\n        /* \"#utility.yul\":2303:2312   */\n      dup3\n        /* \"#utility.yul\":2299:2317   */\n      add\n        /* \"#utility.yul\":2291:2317   */\n      swap1\n      pop\n        /* \"#utility.yul\":2363:2372   */\n      dup2\n        /* \"#utility.yul\":2357:2361   */\n      dup2\n        /* \"#utility.yul\":2353:2373   */\n      sub\n        /* \"#utility.yul\":2349:2350   */\n      0x00\n        /* \"#utility.yul\":2338:2347   */\n      dup4\n        /* \"#utility.yul\":2334:2351   */\n      add\n        /* \"#utility.yul\":2327:2374   */\n      mstore\n        /* \"#utility.yul\":2391:2522   */\n      tag_76\n        /* \"#utility.yul\":2517:2521   */\n      dup2\n        /* \"#utility.yul\":2391:2522   */\n      tag_44\n      jump\t// in\n    tag_76:\n        /* \"#utility.yul\":2383:2522   */\n      swap1\n      pop\n        /* \"#utility.yul\":2110:2529   */\n      swap2\n      swap1\n      pop\n      jump\t// out\n        /* \"#utility.yul\":2535:2621   */\n    tag_45:\n        /* \"#utility.yul\":2581:2588   */\n      0x00\n        /* \"#utility.yul\":2610:2615   */\n      dup2\n        /* \"#utility.yul\":2599:2615   */\n      swap1\n      pop\n        /* \"#utility.yul\":2535:2621   */\n      swap2\n      swap1\n      pop\n      jump\t// out\n        /* \"#utility.yul\":2627:2687   */\n    tag_46:\n        /* \"#utility.yul\":2655:2658   */\n      0x00\n        /* \"#utility.yul\":2676:2681   */\n      dup2\n        /* \"#utility.yul\":2669:2681   */\n      swap1\n      pop\n        /* \"#utility.yul\":2627:2687   */\n      swap2\n      swap1\n      pop\n      jump\t// out\n        /* \"#utility.yul\":2693:2853   */\n    tag_47:\n        /* \"#utility.yul\":2752:2761   */\n      0x00\n        /* \"#utility.yul\":2785:2847   */\n      tag_80\n        /* \"#utility.yul\":2803:2846   */\n      tag_81\n        /* \"#utility.yul\":2812:2845   */\n      tag_82\n        /* \"#utility.yul\":2839:2844   */\n      dup5\n        /* \"#utility.yul\":2812:2845   */\n      tag_45\n      jump\t// in\n    tag_82:\n        /* \"#utility.yul\":2803:2846   */\n      tag_46\n      jump\t// in\n    tag_81:\n        /* \"#utility.yul\":2785:2847   */\n      tag_38\n      jump\t// in\n    tag_80:\n        /* \"#utility.yul\":2772:2847   */\n      swap1\n      pop\n        /* \"#utility.yul\":2693:2853   */\n      swap2\n      swap1\n      pop\n      jump\t// out\n        /* \"#utility.yul\":2859:3008   */\n    tag_48:\n        /* \"#utility.yul\":2955:3001   */\n      tag_84\n        /* \"#utility.yul\":2995:3000   */\n      dup2\n        /* \"#utility.yul\":2955:3001   */\n      tag_47\n      jump\t// in\n    tag_84:\n        /* \"#utility.yul\":2950:2953   */\n      dup3\n        /* \"#utility.yul\":2943:3002   */\n      mstore\n        /* \"#utility.yul\":2859:3008   */\n      pop\n      pop\n      jump\t// out\n        /* \"#utility.yul\":3014:3254   */\n    tag_23:\n        /* \"#utility.yul\":3116:3120   */\n      0x00\n        /* \"#utility.yul\":3154:3156   */\n      0x20\n        /* \"#utility.yul\":3143:3152   */\n      dup3\n        /* \"#utility.yul\":3139:3157   */\n      add\n        /* \"#utility.yul\":3131:3157   */\n      swap1\n      pop\n        /* \"#utility.yul\":3167:3247   */\n      tag_86\n        /* \"#utility.yul\":3244:3245   */\n      0x00\n        /* \"#utility.yul\":3233:3242   */\n      dup4\n        /* \"#utility.yul\":3229:3246   */\n      add\n        /* \"#utility.yul\":3220:3226   */\n      dup5\n        /* \"#utility.yul\":3167:3247   */\n      tag_48\n      jump\t// in\n    tag_86:\n        /* \"#utility.yul\":3014:3254   */\n      swap3\n      swap2\n      pop\n      pop\n      jump\t// out\n        /* \"#utility.yul\":3260:3403   */\n    tag_49:\n        /* \"#utility.yul\":3317:3322   */\n      0x00\n        /* \"#utility.yul\":3348:3354   */\n      dup2\n        /* \"#utility.yul\":3342:3355   */\n      mload\n        /* \"#utility.yul\":3333:3355   */\n      swap1\n      pop\n        /* \"#utility.yul\":3364:3397   */\n      tag_88\n        /* \"#utility.yul\":3391:3396   */\n      dup2\n        /* \"#utility.yul\":3364:3397   */\n      tag_39\n      jump\t// in\n    tag_88:\n        /* \"#utility.yul\":3260:3403   */\n      swap3\n      swap2\n      pop\n      pop\n      jump\t// out\n        /* \"#utility.yul\":3409:3760   */\n    tag_28:\n        /* \"#utility.yul\":3479:3485   */\n      0x00\n        /* \"#utility.yul\":3528:3530   */\n      0x20\n        /* \"#utility.yul\":3516:3525   */\n      dup3\n        /* \"#utility.yul\":3507:3514   */\n      dup5\n        /* \"#utility.yul\":3503:3526   */\n      sub\n        /* \"#utility.yul\":3499:3531   */\n      slt\n        /* \"#utility.yul\":3496:3615   */\n      iszero\n      tag_90\n      jumpi\n        /* \"#utility.yul\":3534:3613   */\n      tag_91\n      tag_36\n      jump\t// in\n    tag_91:\n        /* \"#utility.yul\":3496:3615   */\n    tag_90:\n        /* \"#utility.yul\":3654:3655   */\n      0x00\n        /* \"#utility.yul\":3679:3743   */\n      tag_92\n        /* \"#utility.yul\":3735:3742   */\n      dup5\n        /* \"#utility.yul\":3726:3732   */\n      dup3\n        /* \"#utility.yul\":3715:3724   */\n      dup6\n        /* \"#utility.yul\":3711:3733   */\n      add\n        /* \"#utility.yul\":3679:3743   */\n      tag_49\n      jump\t// in\n    tag_92:\n        /* \"#utility.yul\":3669:3743   */\n      swap2\n      pop\n        /* \"#utility.yul\":3625:3753   */\n      pop\n        /* \"#utility.yul\":3409:3760   */\n      swap3\n      swap2\n      pop\n      pop\n      jump\t// out\n        /* \"#utility.yul\":3766:3923   */\n    tag_50:\n        /* \"#utility.yul\":3906:3915   */\n      0x5375636365737300000000000000000000000000000000000000000000000000\n        /* \"#utility.yul\":3902:3903   */\n      0x00\n        /* \"#utility.yul\":3894:3900   */\n      dup3\n        /* \"#utility.yul\":3890:3904   */\n      add\n        /* \"#utility.yul\":3883:3916   */\n      mstore\n        /* \"#utility.yul\":3766:3923   */\n      pop\n      jump\t// out\n        /* \"#utility.yul\":3929:4294   */\n    tag_51:\n        /* \"#utility.yul\":4071:4074   */\n      0x00\n        /* \"#utility.yul\":4092:4158   */\n      tag_95\n        /* \"#utility.yul\":4156:4157   */\n      0x07\n        /* \"#utility.yul\":4151:4154   */\n      dup4\n        /* \"#utility.yul\":4092:4158   */\n      tag_42\n      jump\t// in\n    tag_95:\n        /* \"#utility.yul\":4085:4158   */\n      swap2\n      pop\n        /* \"#utility.yul\":4167:4260   */\n      tag_96\n        /* \"#utility.yul\":4256:4259   */\n      dup3\n        /* \"#utility.yul\":4167:4260   */\n      tag_50\n      jump\t// in\n    tag_96:\n        /* \"#utility.yul\":4285:4287   */\n      0x20\n        /* \"#utility.yul\":4280:4283   */\n      dup3\n        /* \"#utility.yul\":4276:4288   */\n      add\n        /* \"#utility.yul\":4269:4288   */\n      swap1\n      pop\n        /* \"#utility.yul\":3929:4294   */\n      swap2\n      swap1\n      pop\n      jump\t// out\n        /* \"#utility.yul\":4300:4719   */\n    tag_31:\n        /* \"#utility.yul\":4466:4470   */\n      0x00\n        /* \"#utility.yul\":4504:4506   */\n      0x20\n        /* \"#utility.yul\":4493:4502   */\n      dup3\n        /* \"#utility.yul\":4489:4507   */\n      add\n        /* \"#utility.yul\":4481:4507   */\n      swap1\n      pop\n        /* \"#utility.yul\":4553:4562   */\n      dup2\n        /* \"#utility.yul\":4547:4551   */\n      dup2\n        /* \"#utility.yul\":4543:4563   */\n      sub\n        /* \"#utility.yul\":4539:4540   */\n      0x00\n        /* \"#utility.yul\":4528:4537   */\n      dup4\n        /* \"#utility.yul\":4524:4541   */\n      add\n        /* \"#utility.yul\":4517:4564   */\n      mstore\n        /* \"#utility.yul\":4581:4712   */\n      tag_98\n        /* \"#utility.yul\":4707:4711   */\n      dup2\n        /* \"#utility.yul\":4581:4712   */\n      tag_51\n      jump\t// in\n    tag_98:\n        /* \"#utility.yul\":4573:4712   */\n      swap1\n      pop\n        /* \"#utility.yul\":4300:4719   */\n      swap2\n      swap1\n      pop\n      jump\t// out\n    stop\n\n    sub_0: assembly {\n            /* \"Solidity Grammer/Error/3.sol\":57:215  contract Adult {... */\n          mstore(0x40, 0x80)\n            /* \"Solidity Grammer/Error/3.sol\":99:213  constructor(uint _age) {... */\n          callvalue\n          dup1\n          iszero\n          tag_1\n          jumpi\n          0x00\n          dup1\n          revert\n        tag_1:\n          pop\n          mload(0x40)\n          sub(codesize, bytecodeSize)\n          dup1\n          bytecodeSize\n          dup4\n          codecopy\n          dup2\n          dup2\n          add\n          0x40\n          mstore\n          dup2\n          add\n          swap1\n          tag_2\n          swap2\n          swap1\n          tag_3\n          jump\t// in\n        tag_2:\n            /* \"Solidity Grammer/Error/3.sol\":147:149  19 */\n          0x13\n            /* \"Solidity Grammer/Error/3.sol\":140:144  _age */\n          dup2\n            /* \"Solidity Grammer/Error/3.sol\":140:149  _age > 19 */\n          gt\n            /* \"Solidity Grammer/Error/3.sol\":132:186  require(_age > 19, \"Should be more than 19 years old\") */\n          tag_6\n          jumpi\n          mload(0x40)\n          0x08c379a000000000000000000000000000000000000000000000000000000000\n          dup2\n          mstore\n          0x04\n          add\n          tag_7\n          swap1\n          tag_8\n          jump\t// in\n        tag_7:\n          mload(0x40)\n          dup1\n          swap2\n          sub\n          swap1\n          revert\n        tag_6:\n            /* \"Solidity Grammer/Error/3.sol\":202:206  _age */\n          dup1\n            /* \"Solidity Grammer/Error/3.sol\":196:199  age */\n          0x00\n            /* \"Solidity Grammer/Error/3.sol\":196:206  age = _age */\n          dup2\n          swap1\n          sstore\n          pop\n            /* \"Solidity Grammer/Error/3.sol\":99:213  constructor(uint _age) {... */\n          pop\n            /* \"Solidity Grammer/Error/3.sol\":57:215  contract Adult {... */\n          jump(tag_9)\n            /* \"#utility.yul\":88:205   */\n        tag_11:\n            /* \"#utility.yul\":197:198   */\n          0x00\n            /* \"#utility.yul\":194:195   */\n          dup1\n            /* \"#utility.yul\":187:199   */\n          revert\n            /* \"#utility.yul\":334:411   */\n        tag_13:\n            /* \"#utility.yul\":371:378   */\n          0x00\n            /* \"#utility.yul\":400:405   */\n          dup2\n            /* \"#utility.yul\":389:405   */\n          swap1\n          pop\n            /* \"#utility.yul\":334:411   */\n          swap2\n          swap1\n          pop\n          jump\t// out\n            /* \"#utility.yul\":417:539   */\n        tag_14:\n            /* \"#utility.yul\":490:514   */\n          tag_25\n            /* \"#utility.yul\":508:513   */\n          dup2\n            /* \"#utility.yul\":490:514   */\n          tag_13\n          jump\t// in\n        tag_25:\n            /* \"#utility.yul\":483:488   */\n          dup2\n            /* \"#utility.yul\":480:515   */\n          eq\n            /* \"#utility.yul\":470:533   */\n          tag_26\n          jumpi\n            /* \"#utility.yul\":529:530   */\n          0x00\n            /* \"#utility.yul\":526:527   */\n          dup1\n            /* \"#utility.yul\":519:531   */\n          revert\n            /* \"#utility.yul\":470:533   */\n        tag_26:\n            /* \"#utility.yul\":417:539   */\n          pop\n          jump\t// out\n            /* \"#utility.yul\":545:688   */\n        tag_15:\n            /* \"#utility.yul\":602:607   */\n          0x00\n            /* \"#utility.yul\":633:639   */\n          dup2\n            /* \"#utility.yul\":627:640   */\n          mload\n            /* \"#utility.yul\":618:640   */\n          swap1\n          pop\n            /* \"#utility.yul\":649:682   */\n          tag_28\n            /* \"#utility.yul\":676:681   */\n          dup2\n            /* \"#utility.yul\":649:682   */\n          tag_14\n          jump\t// in\n        tag_28:\n            /* \"#utility.yul\":545:688   */\n          swap3\n          swap2\n          pop\n          pop\n          jump\t// out\n            /* \"#utility.yul\":694:1045   */\n        tag_3:\n            /* \"#utility.yul\":764:770   */\n          0x00\n            /* \"#utility.yul\":813:815   */\n          0x20\n            /* \"#utility.yul\":801:810   */\n          dup3\n            /* \"#utility.yul\":792:799   */\n          dup5\n            /* \"#utility.yul\":788:811   */\n          sub\n            /* \"#utility.yul\":784:816   */\n          slt\n            /* \"#utility.yul\":781:900   */\n          iszero\n          tag_30\n          jumpi\n            /* \"#utility.yul\":819:898   */\n          tag_31\n          tag_11\n          jump\t// in\n        tag_31:\n            /* \"#utility.yul\":781:900   */\n        tag_30:\n            /* \"#utility.yul\":939:940   */\n          0x00\n            /* \"#utility.yul\":964:1028   */\n          tag_32\n            /* \"#utility.yul\":1020:1027   */\n          dup5\n            /* \"#utility.yul\":1011:1017   */\n          dup3\n            /* \"#utility.yul\":1000:1009   */\n          dup6\n            /* \"#utility.yul\":996:1018   */\n          add\n            /* \"#utility.yul\":964:1028   */\n          tag_15\n          jump\t// in\n        tag_32:\n            /* \"#utility.yul\":954:1028   */\n          swap2\n          pop\n            /* \"#utility.yul\":910:1038   */\n          pop\n            /* \"#utility.yul\":694:1045   */\n          swap3\n          swap2\n          pop\n          pop\n          jump\t// out\n            /* \"#utility.yul\":1051:1220   */\n        tag_16:\n            /* \"#utility.yul\":1135:1146   */\n          0x00\n            /* \"#utility.yul\":1169:1175   */\n          dup3\n            /* \"#utility.yul\":1164:1167   */\n          dup3\n            /* \"#utility.yul\":1157:1176   */\n          mstore\n            /* \"#utility.yul\":1209:1213   */\n          0x20\n            /* \"#utility.yul\":1204:1207   */\n          dup3\n            /* \"#utility.yul\":1200:1214   */\n          add\n            /* \"#utility.yul\":1185:1214   */\n          swap1\n          pop\n            /* \"#utility.yul\":1051:1220   */\n          swap3\n          swap2\n          pop\n          pop\n          jump\t// out\n            /* \"#utility.yul\":1226:1408   */\n        tag_17:\n            /* \"#utility.yul\":1366:1400   */\n          0x53686f756c64206265206d6f7265207468616e203139207965617273206f6c64\n            /* \"#utility.yul\":1362:1363   */\n          0x00\n            /* \"#utility.yul\":1354:1360   */\n          dup3\n            /* \"#utility.yul\":1350:1364   */\n          add\n            /* \"#utility.yul\":1343:1401   */\n          mstore\n            /* \"#utility.yul\":1226:1408   */\n          pop\n          jump\t// out\n            /* \"#utility.yul\":1414:1780   */\n        tag_18:\n            /* \"#utility.yul\":1556:1559   */\n          0x00\n            /* \"#utility.yul\":1577:1644   */\n          tag_36\n            /* \"#utility.yul\":1641:1643   */\n          0x20\n            /* \"#utility.yul\":1636:1639   */\n          dup4\n            /* \"#utility.yul\":1577:1644   */\n          tag_16\n          jump\t// in\n        tag_36:\n            /* \"#utility.yul\":1570:1644   */\n          swap2\n          pop\n            /* \"#utility.yul\":1653:1746   */\n          tag_37\n            /* \"#utility.yul\":1742:1745   */\n          dup3\n            /* \"#utility.yul\":1653:1746   */\n          tag_17\n          jump\t// in\n        tag_37:\n            /* \"#utility.yul\":1771:1773   */\n          0x20\n            /* \"#utility.yul\":1766:1769   */\n          dup3\n            /* \"#utility.yul\":1762:1774   */\n          add\n            /* \"#utility.yul\":1755:1774   */\n          swap1\n          pop\n            /* \"#utility.yul\":1414:1780   */\n          swap2\n          swap1\n          pop\n          jump\t// out\n            /* \"#utility.yul\":1786:2205   */\n        tag_8:\n            /* \"#utility.yul\":1952:1956   */\n          0x00\n            /* \"#utility.yul\":1990:1992   */\n          0x20\n            /* \"#utility.yul\":1979:1988   */\n          dup3\n            /* \"#utility.yul\":1975:1993   */\n          add\n            /* \"#utility.yul\":1967:1993   */\n          swap1\n          pop\n            /* \"#utility.yul\":2039:2048   */\n          dup2\n            /* \"#utility.yul\":2033:2037   */\n          dup2\n            /* \"#utility.yul\":2029:2049   */\n          sub\n            /* \"#utility.yul\":2025:2026   */\n          0x00\n            /* \"#utility.yul\":2014:2023   */\n          dup4\n            /* \"#utility.yul\":2010:2027   */\n          add\n            /* \"#utility.yul\":2003:2050   */\n          mstore\n            /* \"#utility.yul\":2067:2198   */\n          tag_39\n            /* \"#utility.yul\":2193:2197   */\n          dup2\n            /* \"#utility.yul\":2067:2198   */\n          tag_18\n          jump\t// in\n        tag_39:\n            /* \"#utility.yul\":2059:2198   */\n          swap1\n          pop\n            /* \"#utility.yul\":1786:2205   */\n          swap2\n          swap1\n          pop\n          jump\t// out\n            /* \"Solidity Grammer/Error/3.sol\":57:215  contract Adult {... */\n        tag_9:\n          dataSize(sub_0)\n          dup1\n          dataOffset(sub_0)\n          0x00\n          codecopy\n          0x00\n          return\n        stop\n\n        sub_0: assembly {\n                /* \"Solidity Grammer/Error/3.sol\":57:215  contract Adult {... */\n              mstore(0x40, 0x80)\n              callvalue\n              dup1\n              iszero\n              tag_1\n              jumpi\n              0x00\n              dup1\n              revert\n            tag_1:\n              pop\n              jumpi(tag_2, lt(calldatasize, 0x04))\n              shr(0xe0, calldataload(0x00))\n              dup1\n              0x262a9dff\n              eq\n              tag_3\n              jumpi\n            tag_2:\n              0x00\n              dup1\n              revert\n                /* \"Solidity Grammer/Error/3.sol\":78:93  uint public age */\n            tag_3:\n              tag_4\n              tag_5\n              jump\t// in\n            tag_4:\n              mload(0x40)\n              tag_6\n              swap2\n              swap1\n              tag_7\n              jump\t// in\n            tag_6:\n              mload(0x40)\n              dup1\n              swap2\n              sub\n              swap1\n              return\n            tag_5:\n              sload(0x00)\n              dup2\n              jump\t// out\n                /* \"#utility.yul\":7:84   */\n            tag_8:\n                /* \"#utility.yul\":44:51   */\n              0x00\n                /* \"#utility.yul\":73:78   */\n              dup2\n                /* \"#utility.yul\":62:78   */\n              swap1\n              pop\n                /* \"#utility.yul\":7:84   */\n              swap2\n              swap1\n              pop\n              jump\t// out\n                /* \"#utility.yul\":90:208   */\n            tag_9:\n                /* \"#utility.yul\":177:201   */\n              tag_13\n                /* \"#utility.yul\":195:200   */\n              dup2\n                /* \"#utility.yul\":177:201   */\n              tag_8\n              jump\t// in\n            tag_13:\n                /* \"#utility.yul\":172:175   */\n              dup3\n                /* \"#utility.yul\":165:202   */\n              mstore\n                /* \"#utility.yul\":90:208   */\n              pop\n              pop\n              jump\t// out\n                /* \"#utility.yul\":214:436   */\n            tag_7:\n                /* \"#utility.yul\":307:311   */\n              0x00\n                /* \"#utility.yul\":345:347   */\n              0x20\n                /* \"#utility.yul\":334:343   */\n              dup3\n                /* \"#utility.yul\":330:348   */\n              add\n                /* \"#utility.yul\":322:348   */\n              swap1\n              pop\n                /* \"#utility.yul\":358:429   */\n              tag_15\n                /* \"#utility.yul\":426:427   */\n              0x00\n                /* \"#utility.yul\":415:424   */\n              dup4\n                /* \"#utility.yul\":411:428   */\n              add\n                /* \"#utility.yul\":402:408   */\n              dup5\n                /* \"#utility.yul\":358:429   */\n              tag_9\n              jump\t// in\n            tag_15:\n                /* \"#utility.yul\":214:436   */\n              swap3\n              swap2\n              pop\n              pop\n              jump\t// out\n\n            auxdata: 0xa26469706673582212204bbb75d31f3332a6cb9870b1ac409c5c3b9f1bb6c316441d986271025981561264736f6c63430008150033\n        }\n    }\n\n    auxdata: 0xa2646970667358221220d07ebc85c76115d2444ecfc3608f344a6df8bc71e896958b19a4d4f89a49c1ef64736f6c63430008150033\n}\n",
				"bytecode": {
					"linkReferences": {},
					"object": "608060405234801561000f575f80fd5b5061066e8061001d5f395ff3fe608060405234801561000f575f80fd5b5060043610610029575f3560e01c8063d96f685e1461002d575b5f80fd5b61004760048036038101906100429190610259565b61005d565b6040516100549190610293565b60405180910390f35b5f8160405161006b90610215565b6100759190610293565b604051809103905ff080156100875760015b61016a577fff8fea957fb7cb582ef297c1c74436fe7a9914efbc52adf197600dc9d171efbc6040516100b890610306565b60405180910390a15f60146040516100cf90610215565b6100d99190610366565b604051809103905ff0801580156100f2573d5f803e3d5ffd5b5090508073ffffffffffffffffffffffffffffffffffffffff1663262a9dff6040518163ffffffff1660e01b8152600401602060405180830381865afa15801561013e573d5f803e3d5ffd5b505050506040513d601f19601f820116820180604052508101906101629190610393565b915050610210565b7fff8fea957fb7cb582ef297c1c74436fe7a9914efbc52adf197600dc9d171efbc60405161019790610408565b60405180910390a18073ffffffffffffffffffffffffffffffffffffffff1663262a9dff6040518163ffffffff1660e01b8152600401602060405180830381865afa1580156101e8573d5f803e3d5ffd5b505050506040513d601f19601f8201168201806040525081019061020c9190610393565b9150505b919050565b6102128061042783390190565b5f80fd5b5f819050919050565b61023881610226565b8114610242575f80fd5b50565b5f813590506102538161022f565b92915050565b5f6020828403121561026e5761026d610222565b5b5f61027b84828501610245565b91505092915050565b61028d81610226565b82525050565b5f6020820190506102a65f830184610284565b92915050565b5f82825260208201905092915050565b7f4661696c6564203a207468652064656661756c742061676520697320323000005f82015250565b5f6102f0601e836102ac565b91506102fb826102bc565b602082019050919050565b5f6020820190508181035f83015261031d816102e4565b9050919050565b5f819050919050565b5f819050919050565b5f61035061034b61034684610324565b61032d565b610226565b9050919050565b61036081610336565b82525050565b5f6020820190506103795f830184610357565b92915050565b5f8151905061038d8161022f565b92915050565b5f602082840312156103a8576103a7610222565b5b5f6103b58482850161037f565b91505092915050565b7f53756363657373000000000000000000000000000000000000000000000000005f82015250565b5f6103f26007836102ac565b91506103fd826103be565b602082019050919050565b5f6020820190508181035f83015261041f816103e6565b905091905056fe608060405234801561000f575f80fd5b50604051610212380380610212833981810160405281019061003191906100b7565b60138111610074576040517f08c379a000000000000000000000000000000000000000000000000000000000815260040161006b9061013c565b60405180910390fd5b805f819055505061015a565b5f80fd5b5f819050919050565b61009681610084565b81146100a0575f80fd5b50565b5f815190506100b18161008d565b92915050565b5f602082840312156100cc576100cb610080565b5b5f6100d9848285016100a3565b91505092915050565b5f82825260208201905092915050565b7f53686f756c64206265206d6f7265207468616e203139207965617273206f6c645f82015250565b5f6101266020836100e2565b9150610131826100f2565b602082019050919050565b5f6020820190508181035f8301526101538161011a565b9050919050565b60ac806101665f395ff3fe6080604052348015600e575f80fd5b50600436106026575f3560e01c8063262a9dff14602a575b5f80fd5b60306044565b604051603b9190605f565b60405180910390f35b5f5481565b5f819050919050565b6059816049565b82525050565b5f60208201905060705f8301846052565b9291505056fea26469706673582212204bbb75d31f3332a6cb9870b1ac409c5c3b9f1bb6c316441d986271025981561264736f6c63430008150033a2646970667358221220d07ebc85c76115d2444ecfc3608f344a6df8bc71e896958b19a4d4f89a49c1ef64736f6c63430008150033",
					"opcodes": "PUSH1 0x80 PUSH1 0x40 MSTORE CALLVALUE DUP1 ISZERO PUSH2 0xF JUMPI PUSH0 DUP1 REVERT JUMPDEST POP PUSH2 0x66E DUP1 PUSH2 0x1D PUSH0 CODECOPY PUSH0 RETURN INVALID PUSH1 0x80 PUSH1 0x40 MSTORE CALLVALUE DUP1 ISZERO PUSH2 0xF JUMPI PUSH0 DUP1 REVERT JUMPDEST POP PUSH1 0x4 CALLDATASIZE LT PUSH2 0x29 JUMPI PUSH0 CALLDATALOAD PUSH1 0xE0 SHR DUP1 PUSH4 0xD96F685E EQ PUSH2 0x2D JUMPI JUMPDEST PUSH0 DUP1 REVERT JUMPDEST PUSH2 0x47 PUSH1 0x4 DUP1 CALLDATASIZE SUB DUP2 ADD SWAP1 PUSH2 0x42 SWAP2 SWAP1 PUSH2 0x259 JUMP JUMPDEST PUSH2 0x5D JUMP JUMPDEST PUSH1 0x40 MLOAD PUSH2 0x54 SWAP2 SWAP1 PUSH2 0x293 JUMP JUMPDEST PUSH1 0x40 MLOAD DUP1 SWAP2 SUB SWAP1 RETURN JUMPDEST PUSH0 DUP2 PUSH1 0x40 MLOAD PUSH2 0x6B SWAP1 PUSH2 0x215 JUMP JUMPDEST PUSH2 0x75 SWAP2 SWAP1 PUSH2 0x293 JUMP JUMPDEST PUSH1 0x40 MLOAD DUP1 SWAP2 SUB SWAP1 PUSH0 CREATE DUP1 ISZERO PUSH2 0x87 JUMPI PUSH1 0x1 JUMPDEST PUSH2 0x16A JUMPI PUSH32 0xFF8FEA957FB7CB582EF297C1C74436FE7A9914EFBC52ADF197600DC9D171EFBC PUSH1 0x40 MLOAD PUSH2 0xB8 SWAP1 PUSH2 0x306 JUMP JUMPDEST PUSH1 0x40 MLOAD DUP1 SWAP2 SUB SWAP1 LOG1 PUSH0 PUSH1 0x14 PUSH1 0x40 MLOAD PUSH2 0xCF SWAP1 PUSH2 0x215 JUMP JUMPDEST PUSH2 0xD9 SWAP2 SWAP1 PUSH2 0x366 JUMP JUMPDEST PUSH1 0x40 MLOAD DUP1 SWAP2 SUB SWAP1 PUSH0 CREATE DUP1 ISZERO DUP1 ISZERO PUSH2 0xF2 JUMPI RETURNDATASIZE PUSH0 DUP1 RETURNDATACOPY RETURNDATASIZE PUSH0 REVERT JUMPDEST POP SWAP1 POP DUP1 PUSH20 0xFFFFFFFFFFFFFFFFFFFFFFFFFFFFFFFFFFFFFFFF AND PUSH4 0x262A9DFF PUSH1 0x40 MLOAD DUP2 PUSH4 0xFFFFFFFF AND PUSH1 0xE0 SHL DUP2 MSTORE PUSH1 0x4 ADD PUSH1 0x20 PUSH1 0x40 MLOAD DUP1 DUP4 SUB DUP2 DUP7 GAS STATICCALL ISZERO DUP1 ISZERO PUSH2 0x13E JUMPI RETURNDATASIZE PUSH0 DUP1 RETURNDATACOPY RETURNDATASIZE PUSH0 REVERT JUMPDEST POP POP POP POP PUSH1 0x40 MLOAD RETURNDATASIZE PUSH1 0x1F NOT PUSH1 0x1F DUP3 ADD AND DUP3 ADD DUP1 PUSH1 0x40 MSTORE POP DUP2 ADD SWAP1 PUSH2 0x162 SWAP2 SWAP1 PUSH2 0x393 JUMP JUMPDEST SWAP2 POP POP PUSH2 0x210 JUMP JUMPDEST PUSH32 0xFF8FEA957FB7CB582EF297C1C74436FE7A9914EFBC52ADF197600DC9D171EFBC PUSH1 0x40 MLOAD PUSH2 0x197 SWAP1 PUSH2 0x408 JUMP JUMPDEST PUSH1 0x40 MLOAD DUP1 SWAP2 SUB SWAP1 LOG1 DUP1 PUSH20 0xFFFFFFFFFFFFFFFFFFFFFFFFFFFFFFFFFFFFFFFF AND PUSH4 0x262A9DFF PUSH1 0x40 MLOAD DUP2 PUSH4 0xFFFFFFFF AND PUSH1 0xE0 SHL DUP2 MSTORE PUSH1 0x4 ADD PUSH1 0x20 PUSH1 0x40 MLOAD DUP1 DUP4 SUB DUP2 DUP7 GAS STATICCALL ISZERO DUP1 ISZERO PUSH2 0x1E8 JUMPI RETURNDATASIZE PUSH0 DUP1 RETURNDATACOPY RETURNDATASIZE PUSH0 REVERT JUMPDEST POP POP POP POP PUSH1 0x40 MLOAD RETURNDATASIZE PUSH1 0x1F NOT PUSH1 0x1F DUP3 ADD AND DUP3 ADD DUP1 PUSH1 0x40 MSTORE POP DUP2 ADD SWAP1 PUSH2 0x20C SWAP2 SWAP1 PUSH2 0x393 JUMP JUMPDEST SWAP2 POP POP JUMPDEST SWAP2 SWAP1 POP JUMP JUMPDEST PUSH2 0x212 DUP1 PUSH2 0x427 DUP4 CODECOPY ADD SWAP1 JUMP JUMPDEST PUSH0 DUP1 REVERT JUMPDEST PUSH0 DUP2 SWAP1 POP SWAP2 SWAP1 POP JUMP JUMPDEST PUSH2 0x238 DUP2 PUSH2 0x226 JUMP JUMPDEST DUP2 EQ PUSH2 0x242 JUMPI PUSH0 DUP1 REVERT JUMPDEST POP JUMP JUMPDEST PUSH0 DUP2 CALLDATALOAD SWAP1 POP PUSH2 0x253 DUP2 PUSH2 0x22F JUMP JUMPDEST SWAP3 SWAP2 POP POP JUMP JUMPDEST PUSH0 PUSH1 0x20 DUP3 DUP5 SUB SLT ISZERO PUSH2 0x26E JUMPI PUSH2 0x26D PUSH2 0x222 JUMP JUMPDEST JUMPDEST PUSH0 PUSH2 0x27B DUP5 DUP3 DUP6 ADD PUSH2 0x245 JUMP JUMPDEST SWAP2 POP POP SWAP3 SWAP2 POP POP JUMP JUMPDEST PUSH2 0x28D DUP2 PUSH2 0x226 JUMP JUMPDEST DUP3 MSTORE POP POP JUMP JUMPDEST PUSH0 PUSH1 0x20 DUP3 ADD SWAP1 POP PUSH2 0x2A6 PUSH0 DUP4 ADD DUP5 PUSH2 0x284 JUMP JUMPDEST SWAP3 SWAP2 POP POP JUMP JUMPDEST PUSH0 DUP3 DUP3 MSTORE PUSH1 0x20 DUP3 ADD SWAP1 POP SWAP3 SWAP2 POP POP JUMP JUMPDEST PUSH32 0x4661696C6564203A207468652064656661756C74206167652069732032300000 PUSH0 DUP3 ADD MSTORE POP JUMP JUMPDEST PUSH0 PUSH2 0x2F0 PUSH1 0x1E DUP4 PUSH2 0x2AC JUMP JUMPDEST SWAP2 POP PUSH2 0x2FB DUP3 PUSH2 0x2BC JUMP JUMPDEST PUSH1 0x20 DUP3 ADD SWAP1 POP SWAP2 SWAP1 POP JUMP JUMPDEST PUSH0 PUSH1 0x20 DUP3 ADD SWAP1 POP DUP2 DUP2 SUB PUSH0 DUP4 ADD MSTORE PUSH2 0x31D DUP2 PUSH2 0x2E4 JUMP JUMPDEST SWAP1 POP SWAP2 SWAP1 POP JUMP JUMPDEST PUSH0 DUP2 SWAP1 POP SWAP2 SWAP1 POP JUMP JUMPDEST PUSH0 DUP2 SWAP1 POP SWAP2 SWAP1 POP JUMP JUMPDEST PUSH0 PUSH2 0x350 PUSH2 0x34B PUSH2 0x346 DUP5 PUSH2 0x324 JUMP JUMPDEST PUSH2 0x32D JUMP JUMPDEST PUSH2 0x226 JUMP JUMPDEST SWAP1 POP SWAP2 SWAP1 POP JUMP JUMPDEST PUSH2 0x360 DUP2 PUSH2 0x336 JUMP JUMPDEST DUP3 MSTORE POP POP JUMP JUMPDEST PUSH0 PUSH1 0x20 DUP3 ADD SWAP1 POP PUSH2 0x379 PUSH0 DUP4 ADD DUP5 PUSH2 0x357 JUMP JUMPDEST SWAP3 SWAP2 POP POP JUMP JUMPDEST PUSH0 DUP2 MLOAD SWAP1 POP PUSH2 0x38D DUP2 PUSH2 0x22F JUMP JUMPDEST SWAP3 SWAP2 POP POP JUMP JUMPDEST PUSH0 PUSH1 0x20 DUP3 DUP5 SUB SLT ISZERO PUSH2 0x3A8 JUMPI PUSH2 0x3A7 PUSH2 0x222 JUMP JUMPDEST JUMPDEST PUSH0 PUSH2 0x3B5 DUP5 DUP3 DUP6 ADD PUSH2 0x37F JUMP JUMPDEST SWAP2 POP POP SWAP3 SWAP2 POP POP JUMP JUMPDEST PUSH32 0x5375636365737300000000000000000000000000000000000000000000000000 PUSH0 DUP3 ADD MSTORE POP JUMP JUMPDEST PUSH0 PUSH2 0x3F2 PUSH1 0x7 DUP4 PUSH2 0x2AC JUMP JUMPDEST SWAP2 POP PUSH2 0x3FD DUP3 PUSH2 0x3BE JUMP JUMPDEST PUSH1 0x20 DUP3 ADD SWAP1 POP SWAP2 SWAP1 POP JUMP JUMPDEST PUSH0 PUSH1 0x20 DUP3 ADD SWAP1 POP DUP2 DUP2 SUB PUSH0 DUP4 ADD MSTORE PUSH2 0x41F DUP2 PUSH2 0x3E6 JUMP JUMPDEST SWAP1 POP SWAP2 SWAP1 POP JUMP INVALID PUSH1 0x80 PUSH1 0x40 MSTORE CALLVALUE DUP1 ISZERO PUSH2 0xF JUMPI PUSH0 DUP1 REVERT JUMPDEST POP PUSH1 0x40 MLOAD PUSH2 0x212 CODESIZE SUB DUP1 PUSH2 0x212 DUP4 CODECOPY DUP2 DUP2 ADD PUSH1 0x40 MSTORE DUP2 ADD SWAP1 PUSH2 0x31 SWAP2 SWAP1 PUSH2 0xB7 JUMP JUMPDEST PUSH1 0x13 DUP2 GT PUSH2 0x74 JUMPI PUSH1 0x40 MLOAD PUSH32 0x8C379A000000000000000000000000000000000000000000000000000000000 DUP2 MSTORE PUSH1 0x4 ADD PUSH2 0x6B SWAP1 PUSH2 0x13C JUMP JUMPDEST PUSH1 0x40 MLOAD DUP1 SWAP2 SUB SWAP1 REVERT JUMPDEST DUP1 PUSH0 DUP2 SWAP1 SSTORE POP POP PUSH2 0x15A JUMP JUMPDEST PUSH0 DUP1 REVERT JUMPDEST PUSH0 DUP2 SWAP1 POP SWAP2 SWAP1 POP JUMP JUMPDEST PUSH2 0x96 DUP2 PUSH2 0x84 JUMP JUMPDEST DUP2 EQ PUSH2 0xA0 JUMPI PUSH0 DUP1 REVERT JUMPDEST POP JUMP JUMPDEST PUSH0 DUP2 MLOAD SWAP1 POP PUSH2 0xB1 DUP2 PUSH2 0x8D JUMP JUMPDEST SWAP3 SWAP2 POP POP JUMP JUMPDEST PUSH0 PUSH1 0x20 DUP3 DUP5 SUB SLT ISZERO PUSH2 0xCC JUMPI PUSH2 0xCB PUSH2 0x80 JUMP JUMPDEST JUMPDEST PUSH0 PUSH2 0xD9 DUP5 DUP3 DUP6 ADD PUSH2 0xA3 JUMP JUMPDEST SWAP2 POP POP SWAP3 SWAP2 POP POP JUMP JUMPDEST PUSH0 DUP3 DUP3 MSTORE PUSH1 0x20 DUP3 ADD SWAP1 POP SWAP3 SWAP2 POP POP JUMP JUMPDEST PUSH32 0x53686F756C64206265206D6F7265207468616E203139207965617273206F6C64 PUSH0 DUP3 ADD MSTORE POP JUMP JUMPDEST PUSH0 PUSH2 0x126 PUSH1 0x20 DUP4 PUSH2 0xE2 JUMP JUMPDEST SWAP2 POP PUSH2 0x131 DUP3 PUSH2 0xF2 JUMP JUMPDEST PUSH1 0x20 DUP3 ADD SWAP1 POP SWAP2 SWAP1 POP JUMP JUMPDEST PUSH0 PUSH1 0x20 DUP3 ADD SWAP1 POP DUP2 DUP2 SUB PUSH0 DUP4 ADD MSTORE PUSH2 0x153 DUP2 PUSH2 0x11A JUMP JUMPDEST SWAP1 POP SWAP2 SWAP1 POP JUMP JUMPDEST PUSH1 0xAC DUP1 PUSH2 0x166 PUSH0 CODECOPY PUSH0 RETURN INVALID PUSH1 0x80 PUSH1 0x40 MSTORE CALLVALUE DUP1 ISZERO PUSH1 0xE JUMPI PUSH0 DUP1 REVERT JUMPDEST POP PUSH1 0x4 CALLDATASIZE LT PUSH1 0x26 JUMPI PUSH0 CALLDATALOAD PUSH1 0xE0 SHR DUP1 PUSH4 0x262A9DFF EQ PUSH1 0x2A JUMPI JUMPDEST PUSH0 DUP1 REVERT JUMPDEST PUSH1 0x30 PUSH1 0x44 JUMP JUMPDEST PUSH1 0x40 MLOAD PUSH1 0x3B SWAP2 SWAP1 PUSH1 0x5F JUMP JUMPDEST PUSH1 0x40 MLOAD DUP1 SWAP2 SUB SWAP1 RETURN JUMPDEST PUSH0 SLOAD DUP2 JUMP JUMPDEST PUSH0 DUP2 SWAP1 POP SWAP2 SWAP1 POP JUMP JUMPDEST PUSH1 0x59 DUP2 PUSH1 0x49 JUMP JUMPDEST DUP3 MSTORE POP POP JUMP JUMPDEST PUSH0 PUSH1 0x20 DUP3 ADD SWAP1 POP PUSH1 0x70 PUSH0 DUP4 ADD DUP5 PUSH1 0x52 JUMP JUMPDEST SWAP3 SWAP2 POP POP JUMP INVALID LOG2 PUSH5 0x6970667358 0x22 SLT KECCAK256 0x4B 0xBB PUSH22 0xD31F3332A6CB9870B1AC409C5C3B9F1BB6C316441D98 PUSH3 0x710259 DUP2 JUMP SLT PUSH5 0x736F6C6343 STOP ADDMOD ISZERO STOP CALLER LOG2 PUSH5 0x6970667358 0x22 SLT KECCAK256 0xD0 PUSH31 0xBC85C76115D2444ECFC3608F344A6DF8BC71E896958B19A4D4F89A49C1EF64 PUSH20 0x6F6C634300081500330000000000000000000000 "
				},
				"gasEstimates": {
					"creation": {
						"codeDepositCost": "329200",
						"executionCost": "366",
						"totalCost": "329566"
					},
					"external": {
						"instantiate(uint256)": "infinite"
					}
				},
				"methodIdentifiers": {
					"instantiate(uint256)": "d96f685e"
				}
			},
			"storageLayout": {
				"storage": [],
				"types": null
			},
			"userdoc": {
				"kind": "user",
				"methods": {},
				"version": 1
			}
		}
	}
}