{
	"Solidity Grammer/Mapping&Array/4.sol": {
		"Array": {
			"abi": [
				{
					"inputs": [
						{
							"internalType": "uint256",
							"name": "",
							"type": "uint256"
						}
					],
					"name": "arr",
					"outputs": [
						{
							"internalType": "uint256",
							"name": "",
							"type": "uint256"
						}
					],
					"stateMutability": "view",
					"type": "function"
				},
				{
					"inputs": [],
					"name": "test",
					"outputs": [],
					"stateMutability": "nonpayable",
					"type": "function"
				}
			],
			"devdoc": {
				"kind": "dev",
				"methods": {},
				"version": 1
			},
			"evm": {
				"assembly": "    /* \"Solidity Grammer/Mapping&Array/4.sol\":67:174  contract Array {... */\n  mstore(0x40, 0x80)\n  callvalue\n  dup1\n  iszero\n  tag_1\n  jumpi\n  0x00\n  dup1\n  revert\ntag_1:\n  pop\n  dataSize(sub_0)\n  dup1\n  dataOffset(sub_0)\n  0x00\n  codecopy\n  0x00\n  return\nstop\n\nsub_0: assembly {\n        /* \"Solidity Grammer/Mapping&Array/4.sol\":67:174  contract Array {... */\n      mstore(0x40, 0x80)\n      callvalue\n      dup1\n      iszero\n      tag_1\n      jumpi\n      0x00\n      dup1\n      revert\n    tag_1:\n      pop\n      jumpi(tag_2, lt(calldatasize, 0x04))\n      shr(0xe0, calldataload(0x00))\n      dup1\n      0x71e5ee5f\n      eq\n      tag_3\n      jumpi\n      dup1\n      0xf8a8fd6d\n      eq\n      tag_4\n      jumpi\n    tag_2:\n      0x00\n      dup1\n      revert\n        /* \"Solidity Grammer/Mapping&Array/4.sol\":88:105  uint[] public arr */\n    tag_3:\n      tag_5\n      0x04\n      dup1\n      calldatasize\n      sub\n      dup2\n      add\n      swap1\n      tag_6\n      swap2\n      swap1\n      tag_7\n      jump\t// in\n    tag_6:\n      tag_8\n      jump\t// in\n    tag_5:\n      mload(0x40)\n      tag_9\n      swap2\n      swap1\n      tag_10\n      jump\t// in\n    tag_9:\n      mload(0x40)\n      dup1\n      swap2\n      sub\n      swap1\n      return\n        /* \"Solidity Grammer/Mapping&Array/4.sol\":112:172  function test() public {... */\n    tag_4:\n      tag_11\n      tag_12\n      jump\t// in\n    tag_11:\n      stop\n        /* \"Solidity Grammer/Mapping&Array/4.sol\":88:105  uint[] public arr */\n    tag_8:\n      0x00\n      dup2\n      dup2\n      sload\n      dup2\n      lt\n      tag_13\n      jumpi\n      0x00\n      dup1\n      revert\n    tag_13:\n      swap1\n      0x00\n      mstore\n      keccak256(0x00, 0x20)\n      add\n      0x00\n      swap2\n      pop\n      swap1\n      pop\n      sload\n      dup2\n      jump\t// out\n        /* \"Solidity Grammer/Mapping&Array/4.sol\":112:172  function test() public {... */\n    tag_12:\n        /* \"Solidity Grammer/Mapping&Array/4.sol\":145:165  arr = [1,2 ,3, 4, 5] */\n      mload(0x40)\n      dup1\n      0xa0\n      add\n      0x40\n      mstore\n      dup1\n        /* \"Solidity Grammer/Mapping&Array/4.sol\":152:153  1 */\n      0x01\n        /* \"Solidity Grammer/Mapping&Array/4.sol\":145:165  arr = [1,2 ,3, 4, 5] */\n      0xff\n      and\n      dup2\n      mstore\n      0x20\n      add\n        /* \"Solidity Grammer/Mapping&Array/4.sol\":154:155  2 */\n      0x02\n        /* \"Solidity Grammer/Mapping&Array/4.sol\":145:165  arr = [1,2 ,3, 4, 5] */\n      0xff\n      and\n      dup2\n      mstore\n      0x20\n      add\n        /* \"Solidity Grammer/Mapping&Array/4.sol\":157:158  3 */\n      0x03\n        /* \"Solidity Grammer/Mapping&Array/4.sol\":145:165  arr = [1,2 ,3, 4, 5] */\n      0xff\n      and\n      dup2\n      mstore\n      0x20\n      add\n        /* \"Solidity Grammer/Mapping&Array/4.sol\":160:161  4 */\n      0x04\n        /* \"Solidity Grammer/Mapping&Array/4.sol\":145:165  arr = [1,2 ,3, 4, 5] */\n      0xff\n      and\n      dup2\n      mstore\n      0x20\n      add\n        /* \"Solidity Grammer/Mapping&Array/4.sol\":163:164  5 */\n      0x05\n        /* \"Solidity Grammer/Mapping&Array/4.sol\":145:165  arr = [1,2 ,3, 4, 5] */\n      0xff\n      and\n      dup2\n      mstore\n      pop\n        /* \"Solidity Grammer/Mapping&Array/4.sol\":145:148  arr */\n      0x00\n        /* \"Solidity Grammer/Mapping&Array/4.sol\":145:165  arr = [1,2 ,3, 4, 5] */\n      swap1\n      0x05\n      tag_16\n      swap3\n      swap2\n      swap1\n      tag_17\n      jump\t// in\n    tag_16:\n      pop\n        /* \"Solidity Grammer/Mapping&Array/4.sol\":112:172  function test() public {... */\n      jump\t// out\n    tag_17:\n      dup3\n      dup1\n      sload\n      dup3\n      dup3\n      sstore\n      swap1\n      0x00\n      mstore\n      keccak256(0x00, 0x20)\n      swap1\n      dup2\n      add\n      swap3\n      dup3\n      iszero\n      tag_18\n      jumpi\n      swap2\n      0x20\n      mul\n      dup3\n      add\n    tag_19:\n      dup3\n      dup2\n      gt\n      iszero\n      tag_20\n      jumpi\n      dup3\n      mload\n      dup3\n      swap1\n      0xff\n      and\n      swap1\n      sstore\n      swap2\n      0x20\n      add\n      swap2\n      swap1\n      0x01\n      add\n      swap1\n      jump(tag_19)\n    tag_20:\n    tag_18:\n      pop\n      swap1\n      pop\n      tag_21\n      swap2\n      swap1\n      tag_22\n      jump\t// in\n    tag_21:\n      pop\n      swap1\n      jump\t// out\n    tag_22:\n    tag_23:\n      dup1\n      dup3\n      gt\n      iszero\n      tag_24\n      jumpi\n      0x00\n      dup2\n      0x00\n      swap1\n      sstore\n      pop\n      0x01\n      add\n      jump(tag_23)\n    tag_24:\n      pop\n      swap1\n      jump\t// out\n        /* \"#utility.yul\":88:205   */\n    tag_26:\n        /* \"#utility.yul\":197:198   */\n      0x00\n        /* \"#utility.yul\":194:195   */\n      dup1\n        /* \"#utility.yul\":187:199   */\n      revert\n        /* \"#utility.yul\":334:411   */\n    tag_28:\n        /* \"#utility.yul\":371:378   */\n      0x00\n        /* \"#utility.yul\":400:405   */\n      dup2\n        /* \"#utility.yul\":389:405   */\n      swap1\n      pop\n        /* \"#utility.yul\":334:411   */\n      swap2\n      swap1\n      pop\n      jump\t// out\n        /* \"#utility.yul\":417:539   */\n    tag_29:\n        /* \"#utility.yul\":490:514   */\n      tag_38\n        /* \"#utility.yul\":508:513   */\n      dup2\n        /* \"#utility.yul\":490:514   */\n      tag_28\n      jump\t// in\n    tag_38:\n        /* \"#utility.yul\":483:488   */\n      dup2\n        /* \"#utility.yul\":480:515   */\n      eq\n        /* \"#utility.yul\":470:533   */\n      tag_39\n      jumpi\n        /* \"#utility.yul\":529:530   */\n      0x00\n        /* \"#utility.yul\":526:527   */\n      dup1\n        /* \"#utility.yul\":519:531   */\n      revert\n        /* \"#utility.yul\":470:533   */\n    tag_39:\n        /* \"#utility.yul\":417:539   */\n      pop\n      jump\t// out\n        /* \"#utility.yul\":545:684   */\n    tag_30:\n        /* \"#utility.yul\":591:596   */\n      0x00\n        /* \"#utility.yul\":629:635   */\n      dup2\n        /* \"#utility.yul\":616:636   */\n      calldataload\n        /* \"#utility.yul\":607:636   */\n      swap1\n      pop\n        /* \"#utility.yul\":645:678   */\n      tag_41\n        /* \"#utility.yul\":672:677   */\n      dup2\n        /* \"#utility.yul\":645:678   */\n      tag_29\n      jump\t// in\n    tag_41:\n        /* \"#utility.yul\":545:684   */\n      swap3\n      swap2\n      pop\n      pop\n      jump\t// out\n        /* \"#utility.yul\":690:1019   */\n    tag_7:\n        /* \"#utility.yul\":749:755   */\n      0x00\n        /* \"#utility.yul\":798:800   */\n      0x20\n        /* \"#utility.yul\":786:795   */\n      dup3\n        /* \"#utility.yul\":777:784   */\n      dup5\n        /* \"#utility.yul\":773:796   */\n      sub\n        /* \"#utility.yul\":769:801   */\n      slt\n        /* \"#utility.yul\":766:885   */\n      iszero\n      tag_43\n      jumpi\n        /* \"#utility.yul\":804:883   */\n      tag_44\n      tag_26\n      jump\t// in\n    tag_44:\n        /* \"#utility.yul\":766:885   */\n    tag_43:\n        /* \"#utility.yul\":924:925   */\n      0x00\n        /* \"#utility.yul\":949:1002   */\n      tag_45\n        /* \"#utility.yul\":994:1001   */\n      dup5\n        /* \"#utility.yul\":985:991   */\n      dup3\n        /* \"#utility.yul\":974:983   */\n      dup6\n        /* \"#utility.yul\":970:992   */\n      add\n        /* \"#utility.yul\":949:1002   */\n      tag_30\n      jump\t// in\n    tag_45:\n        /* \"#utility.yul\":939:1002   */\n      swap2\n      pop\n        /* \"#utility.yul\":895:1012   */\n      pop\n        /* \"#utility.yul\":690:1019   */\n      swap3\n      swap2\n      pop\n      pop\n      jump\t// out\n        /* \"#utility.yul\":1025:1143   */\n    tag_31:\n        /* \"#utility.yul\":1112:1136   */\n      tag_47\n        /* \"#utility.yul\":1130:1135   */\n      dup2\n        /* \"#utility.yul\":1112:1136   */\n      tag_28\n      jump\t// in\n    tag_47:\n        /* \"#utility.yul\":1107:1110   */\n      dup3\n        /* \"#utility.yul\":1100:1137   */\n      mstore\n        /* \"#utility.yul\":1025:1143   */\n      pop\n      pop\n      jump\t// out\n        /* \"#utility.yul\":1149:1371   */\n    tag_10:\n        /* \"#utility.yul\":1242:1246   */\n      0x00\n        /* \"#utility.yul\":1280:1282   */\n      0x20\n        /* \"#utility.yul\":1269:1278   */\n      dup3\n        /* \"#utility.yul\":1265:1283   */\n      add\n        /* \"#utility.yul\":1257:1283   */\n      swap1\n      pop\n        /* \"#utility.yul\":1293:1364   */\n      tag_49\n        /* \"#utility.yul\":1361:1362   */\n      0x00\n        /* \"#utility.yul\":1350:1359   */\n      dup4\n        /* \"#utility.yul\":1346:1363   */\n      add\n        /* \"#utility.yul\":1337:1343   */\n      dup5\n        /* \"#utility.yul\":1293:1364   */\n      tag_31\n      jump\t// in\n    tag_49:\n        /* \"#utility.yul\":1149:1371   */\n      swap3\n      swap2\n      pop\n      pop\n      jump\t// out\n\n    auxdata: 0xa2646970667358221220470895cc9af1dfa96ee8800e544df4c6ae9dd1f16d6f4eb2e04b687e9dd87ae064736f6c63430008150033\n}\n",
				"bytecode": {
					"linkReferences": {},
					"object": "608060405234801561000f575f80fd5b506102098061001d5f395ff3fe608060405234801561000f575f80fd5b5060043610610034575f3560e01c806371e5ee5f14610038578063f8a8fd6d14610068575b5f80fd5b610052600480360381019061004d9190610180565b610072565b60405161005f91906101ba565b60405180910390f35b610070610091565b005b5f8181548110610080575f80fd5b905f5260205f20015f915090505481565b6040518060a00160405280600160ff168152602001600260ff168152602001600360ff168152602001600460ff168152602001600560ff168152505f9060056100db9291906100de565b50565b828054828255905f5260205f2090810192821561011d579160200282015b8281111561011c578251829060ff169055916020019190600101906100fc565b5b50905061012a919061012e565b5090565b5b80821115610145575f815f90555060010161012f565b5090565b5f80fd5b5f819050919050565b61015f8161014d565b8114610169575f80fd5b50565b5f8135905061017a81610156565b92915050565b5f6020828403121561019557610194610149565b5b5f6101a28482850161016c565b91505092915050565b6101b48161014d565b82525050565b5f6020820190506101cd5f8301846101ab565b9291505056fea2646970667358221220470895cc9af1dfa96ee8800e544df4c6ae9dd1f16d6f4eb2e04b687e9dd87ae064736f6c63430008150033",
					"opcodes": "PUSH1 0x80 PUSH1 0x40 MSTORE CALLVALUE DUP1 ISZERO PUSH2 0xF JUMPI PUSH0 DUP1 REVERT JUMPDEST POP PUSH2 0x209 DUP1 PUSH2 0x1D PUSH0 CODECOPY PUSH0 RETURN INVALID PUSH1 0x80 PUSH1 0x40 MSTORE CALLVALUE DUP1 ISZERO PUSH2 0xF JUMPI PUSH0 DUP1 REVERT JUMPDEST POP PUSH1 0x4 CALLDATASIZE LT PUSH2 0x34 JUMPI PUSH0 CALLDATALOAD PUSH1 0xE0 SHR DUP1 PUSH4 0x71E5EE5F EQ PUSH2 0x38 JUMPI DUP1 PUSH4 0xF8A8FD6D EQ PUSH2 0x68 JUMPI JUMPDEST PUSH0 DUP1 REVERT JUMPDEST PUSH2 0x52 PUSH1 0x4 DUP1 CALLDATASIZE SUB DUP2 ADD SWAP1 PUSH2 0x4D SWAP2 SWAP1 PUSH2 0x180 JUMP JUMPDEST PUSH2 0x72 JUMP JUMPDEST PUSH1 0x40 MLOAD PUSH2 0x5F SWAP2 SWAP1 PUSH2 0x1BA JUMP JUMPDEST PUSH1 0x40 MLOAD DUP1 SWAP2 SUB SWAP1 RETURN JUMPDEST PUSH2 0x70 PUSH2 0x91 JUMP JUMPDEST STOP JUMPDEST PUSH0 DUP2 DUP2 SLOAD DUP2 LT PUSH2 0x80 JUMPI PUSH0 DUP1 REVERT JUMPDEST SWAP1 PUSH0 MSTORE PUSH1 0x20 PUSH0 KECCAK256 ADD PUSH0 SWAP2 POP SWAP1 POP SLOAD DUP2 JUMP JUMPDEST PUSH1 0x40 MLOAD DUP1 PUSH1 0xA0 ADD PUSH1 0x40 MSTORE DUP1 PUSH1 0x1 PUSH1 0xFF AND DUP2 MSTORE PUSH1 0x20 ADD PUSH1 0x2 PUSH1 0xFF AND DUP2 MSTORE PUSH1 0x20 ADD PUSH1 0x3 PUSH1 0xFF AND DUP2 MSTORE PUSH1 0x20 ADD PUSH1 0x4 PUSH1 0xFF AND DUP2 MSTORE PUSH1 0x20 ADD PUSH1 0x5 PUSH1 0xFF AND DUP2 MSTORE POP PUSH0 SWAP1 PUSH1 0x5 PUSH2 0xDB SWAP3 SWAP2 SWAP1 PUSH2 0xDE JUMP JUMPDEST POP JUMP JUMPDEST DUP3 DUP1 SLOAD DUP3 DUP3 SSTORE SWAP1 PUSH0 MSTORE PUSH1 0x20 PUSH0 KECCAK256 SWAP1 DUP2 ADD SWAP3 DUP3 ISZERO PUSH2 0x11D JUMPI SWAP2 PUSH1 0x20 MUL DUP3 ADD JUMPDEST DUP3 DUP2 GT ISZERO PUSH2 0x11C JUMPI DUP3 MLOAD DUP3 SWAP1 PUSH1 0xFF AND SWAP1 SSTORE SWAP2 PUSH1 0x20 ADD SWAP2 SWAP1 PUSH1 0x1 ADD SWAP1 PUSH2 0xFC JUMP JUMPDEST JUMPDEST POP SWAP1 POP PUSH2 0x12A SWAP2 SWAP1 PUSH2 0x12E JUMP JUMPDEST POP SWAP1 JUMP JUMPDEST JUMPDEST DUP1 DUP3 GT ISZERO PUSH2 0x145 JUMPI PUSH0 DUP2 PUSH0 SWAP1 SSTORE POP PUSH1 0x1 ADD PUSH2 0x12F JUMP JUMPDEST POP SWAP1 JUMP JUMPDEST PUSH0 DUP1 REVERT JUMPDEST PUSH0 DUP2 SWAP1 POP SWAP2 SWAP1 POP JUMP JUMPDEST PUSH2 0x15F DUP2 PUSH2 0x14D JUMP JUMPDEST DUP2 EQ PUSH2 0x169 JUMPI PUSH0 DUP1 REVERT JUMPDEST POP JUMP JUMPDEST PUSH0 DUP2 CALLDATALOAD SWAP1 POP PUSH2 0x17A DUP2 PUSH2 0x156 JUMP JUMPDEST SWAP3 SWAP2 POP POP JUMP JUMPDEST PUSH0 PUSH1 0x20 DUP3 DUP5 SUB SLT ISZERO PUSH2 0x195 JUMPI PUSH2 0x194 PUSH2 0x149 JUMP JUMPDEST JUMPDEST PUSH0 PUSH2 0x1A2 DUP5 DUP3 DUP6 ADD PUSH2 0x16C JUMP JUMPDEST SWAP2 POP POP SWAP3 SWAP2 POP POP JUMP JUMPDEST PUSH2 0x1B4 DUP2 PUSH2 0x14D JUMP JUMPDEST DUP3 MSTORE POP POP JUMP JUMPDEST PUSH0 PUSH1 0x20 DUP3 ADD SWAP1 POP PUSH2 0x1CD PUSH0 DUP4 ADD DUP5 PUSH2 0x1AB JUMP JUMPDEST SWAP3 SWAP2 POP POP JUMP INVALID LOG2 PUSH5 0x6970667358 0x22 SLT KECCAK256 SELFBALANCE ADDMOD SWAP6 0xCC SWAP11 CALL 0xDF 0xA9 PUSH15 0xE8800E544DF4C6AE9DD1F16D6F4EB2 0xE0 0x4B PUSH9 0x7E9DD87AE064736F6C PUSH4 0x43000815 STOP CALLER "
				},
				"gasEstimates": {
					"creation": {
						"codeDepositCost": "104200",
						"executionCost": "151",
						"totalCost": "104351"
					},
					"external": {
						"arr(uint256)": "infinite",
						"test()": "infinite"
					}
				},
				"methodIdentifiers": {
					"arr(uint256)": "71e5ee5f",
					"test()": "f8a8fd6d"
				}
			},
			"storageLayout": {
				"storage": [
					{
						"astId": 4,
						"contract": "Solidity Grammer/Mapping&Array/4.sol:Array",
						"label": "arr",
						"offset": 0,
						"slot": "0",
						"type": "t_array(t_uint256)dyn_storage"
					}
				],
				"types": {
					"t_array(t_uint256)dyn_storage": {
						"base": "t_uint256",
						"encoding": "dynamic_array",
						"label": "uint256[]",
						"numberOfBytes": "32"
					},
					"t_uint256": {
						"encoding": "inplace",
						"label": "uint256",
						"numberOfBytes": "32"
					}
				}
			},
			"userdoc": {
				"kind": "user",
				"methods": {},
				"version": 1
			}
		}
	}
}